:020000040800F2
:1000000000000220D9050008A5150008A715000862
:10001000A9150008AB150008AD1500080000000088
:10002000000000000000000000000000AF15000804
:10003000B115000800000000B3150008B515000850
:1000400029060008290600082906000829060008D4
:1000500029060008290600082906000829060008C4
:1000600029060008290600082906000829060008B4
:1000700029060008290600082906000829060008A4
:100080002906000829060008290600082906000894
:100090002906000829060008290600082906000884
:1000A0002906000829060008290600082906000874
:1000B0002906000829060008290600082906000864
:1000C0002906000829060008290600082906000854
:1000D0002906000829060008290600082906000844
:1000E000290600082906000800000000290600086B
:1000F0002906000829060008290600082906000824
:100100002906000829060008290600082906000813
:100110002906000829060008290600082906000803
:1001200029060008290600082906000829060008F3
:1001300029060008290600082906000829060008E3
:1001400000000000000000000000000000000000AF
:1001500029060008290600082906000829060008C3
:1001600029060008290600082906000829060008B3
:1001700029060008C11500082906000829060008FC
:100180002906000829060008290600082906000893
:100190002906000829060008290600082906000883
:1001A0002906000829060008290600082906000873
:1001B0002906000829060008290600082906000863
:1001C0002906000829060008290600082906000853
:1001D00029060008D115000829060008290600088C
:1001E0002906000829060008290600082906000833
:1001F0002906000829060008290600082906000823
:100200002906000829060008290600082906000812
:100210002906000829060008290600082906000802
:100220002906000829060008290600080000000029
:100230002906000829060008000000002906000819
:1002400029060008290600082906000829060008D2
:1002500029060008290600082906000829060008C2
:1002600029060008290600082906000829060008B2
:1002700029060008290600082906000800000000D9
:100280002906000800000000290600080000000000
:0802900000000000290600082F
:1002980010B5054C237833B9044B13B10448AFF3B8
:1002A80000800123237010BD04020020000000001C
:1002B800386D000808B5034B1BB103490348AFF379
:1002C800008008BD0000000008020020386D00080A
:1002D80053B94AB9002908BF00281CBF4FF0FF31A5
:1002E8004FF0FF3000F072B9ADF1080C6DE904CEA3
:1002F80000F006F8DDF804E0DDE9022304B07047F9
:100308002DE9F047089E04468846002B4BD18A42C7
:10031800154667D9B2FA82F24AB1C2F1200701FA4A
:1003280002F320FA07F7954047EA030894404FEA9A
:10033800154E230CB8FBFEF71FFA85FC0EFB178839
:1003480043EA084307FB0CF1994209D9EB1807F176
:10035800FF3080F01B81994240F21881023F2B4404
:100368005B1AA4B2B3FBFEF00EFB103344EA03445D
:1003780000FB0CFCA44509D92C1900F1FF3380F0CF
:100388000781A44540F2048102382C4440EA074022
:10039800A4EB0C0400271EB1D4400023C6E9004397
:1003A8003946BDE8F0878B4209D9002E00F0EB8072
:1003B8000027C6E9000138463946BDE8F087B3FA98
:1003C80083F7002F47D18B4202D3824200F2FA8092
:1003D800841A61EB030301209846002EE0D0C6E999
:1003E8000048DDE702B9FFDEB2FA82F2002A40F0E7
:1003F8008F80491B4FEA154E1FFA85F80127B1FB7C
:10040800FEFC230C0EFB1C1143EA014308FB0CF114
:10041800994207D9EB180CF1FF3002D2994200F249
:10042800CD808446591AA3B2B1FBFEF00EFB10141E
:1004380043EA044408FB00F8A04507D92C1900F149
:10044800FF3302D2A04500F2B6801846A4EB080498
:1004580040EA0C409FE7C7F1200CBB4022FA0CFE93
:100468004EEA030E01FA07F420FA0CF521FA0CF310
:100478004FEA1E482543B3FBF8F92C0C08FB193347
:100488001FFA8EFA44EA034309FB0AF49C4202FA73
:1004980007F200FA07F10BD91EEB030309F1FF304D
:1004A80080F087809C4240F28480A9F1020973445D
:1004B8001B1BADB2B3FBF8F008FB103345EA03444D
:1004C80000FB0AFAA24508D91EEB040400F1FF3329
:1004D8006BD2A24569D90238744440EA0940A0FBAE
:1004E8000289A4EB0A044C45C2464B4654D351D06A
:1004F800002E69D0B1EB0A0564EB030404FA0CFC86
:10050800FD40FC404CEA0505C6E90054002747E7D2
:10051800C2F1200320FA03F7954001FA02F021FA0C
:1005280003F34FEA154E3843010CB3FBFEF71FFAED
:1005380085F80EFB173341EA034107FB08F38B42AA
:1005480004FA02F407D9691807F1FF3C2FD28B424D
:100558002DD9023F2944CB1A81B2B3FBFEF00EFB22
:10056800103341EA034100FB08F38B4207D96918AD
:1005780000F1FF3C17D28B4215D902382944C91A19
:1005880040EA07473BE73746304609E70746E7E6CC
:100598001846FBE64145ABD2B8EB020A69EB0E02FE
:1005A80001381346A4E76046E9E7184695E7674629
:1005B800D1E781467CE702382C4447E7ACF1020CCE
:1005C8002B442FE7384608E73746E9E6704700BF6F
:1005D800DFF834D0002103E00C4B5B584350043162
:1005E8000B480C4B42189A42F6D30B4A02E0002300
:1005F80042F8043B094B9A42F9D301F095FA06F008
:100608009BFA00F07DFE7047000002206C6E000827
:10061800000000200402002004020020EC14002046
:10062800FEE700002DE9F0438DB0564BD3F8E020EB
:1006380042F01002C3F8E020D3F8E02002F01002E4
:100648000192019AD3F8E02042F00402C3F8E020B6
:10065800D3F8E02002F004020292029AD3F8E020D4
:1006680042F08002C3F8E020D3F8E02002F08002D4
:100678000392039AD3F8E02042F00102C3F8E02085
:10068800D3F8E02002F001020492049AD3F8E020A3
:1006980042F00202C3F8E020D3F8E02002F00202A0
:1006A8000592059AD3F8E02042F00802C3F8E0204A
:1006B800D3F8E03003F008030693069BDFF8D490E4
:1006C80001229021484601F031FC2F4E01221221CF
:1006D800304601F02BFC2D4F00224FF4E041384604
:1006E80001F024FC00224FF40041304601F01EFCCA
:1006F80001228121384601F019FCDFF89C80012293
:100708004021404601F012FC9023079301240894ED
:10071800099403250A9507A9484601F011FB082307
:100728000793089409940A9507A9194801F008FB4A
:1007380012230793089409940A9507A9304601F0F3
:10074800FFFA47F281030793089409940A9507A9C9
:10075800384601F0F5FA4FF4004307930894002354
:1007680009930A9507A9304601F0EAFA402307934E
:10077800089409940A9507A9404601F0E1FA0DB0DA
:10078800BDE8F0830044025800000258000C0258EB
:100798000008025800100258000402582DE9F047DA
:1007A80084B0B44BD3F8184201224FF48051B248B8
:1007B80001F0BCFB00233F2B05D8E15CAF4AD154C4
:1007C80001339BB2F7E7AD4B5A781B7843EA022313
:1007D80040F2AA72934244D040F20C72934200F065
:1007E800C083A3F26B62042A00F2BB8340F26B62FF
:1007F800934200F0EB8040F26C62934200F08881F3
:1008080040F26D62934200F00B8240F26E629342B6
:1008180000F08E8240F26F62934240F0A283984BC0
:10082800A6225A800122DA800423002125E3934876
:10083800C45C5A1C825C42EA0422924820F81120C7
:10084800013102333F2BF2DD8E4B1B8823B98D4BD0
:100858005B88002B00F08583894B91225A80002405
:1008680027E004230021EDE7BB8C874A1344ADF849
:100878000C30FB8C1344ADF80E3000228021284642
:1008880001F054FB4B46022203A9804803F080FE86
:1008980001228021284601F049FB94E0013243F10E
:1008A800000345F2EF500021994208BF9042F5D26B
:1008B8000134032C00F35583A31C714D2B80714E1A
:1008C80036F81430AB80724F00220821384601F008
:1008D8002DFB06F14008DFF8C4A14FF48079CDF86C
:1008E8000090052342462946504603F097FF01220F
:1008F8000821384601F01AFB231D36F81330AB8067
:10090800A7F5006700221021384601F00FFBCDF84B
:1009180000900523424629465E4803F07FFF0122E6
:100928001021384601F002FB04F1080336F81330B1
:10093800AB8007F5805700221021384601F0F6FAFF
:10094800CDF80090052342462946534803F066FF38
:1009580001221021384601F0E9FA04F10C0336F8B7
:100968001330AB8000228021384601F0DFFACDF841
:100978000090052342462946504603F04FFF0122C6
:100988008021384601F0D2FA012C1CDC04F1100356
:10099800374636F813302E46AB80374D002280217B
:1009A800284601F0C3FACDF80090052342463146A7
:1009B800364803F033FF01228021284601F0B6FAB9
:1009C800002C3FF451AF002200236AE72C4BA022F1
:1009D8005A800122DA80042300210AE02748C45CF7
:1009E8005A1C825C42EA0422264820F81120013170
:1009F80002333F2BF2DD002457E016469380244D46
:100A080000220821284601F091FA4FF4807305224C
:100A18003146224803F0BCFD01220821284601F096
:100A280085FA4DE0164EB3801D4D00221021284650
:100A380001F07CFA102305223146164803F0A8FD80
:100A480001221021284601F071FA3FE00C4EB380D4
:100A5800144D00221021284601F068FA10230522BF
:100A680031460D4803F094FD01221021284601F07B
:100A78005DFA32E0A0060020000C0258F0020020C7
:100A88000000002020020020D8DCFFFFC403002063
:100A980000080258000600206C0500203C030020D6
:100AA80000000258001002580134032C00F3598248
:100AB800A31CBF4A1380BF4B33F81430002B9CD1C2
:100AC800231DBC4A32F81330002BABD104F10803C4
:100AD800B84A32F81330002BB8D104F10C03B54AE8
:100AE80032F81330002BDFD0B14EB380B24D002264
:100AF8008021284601F01AFA102305223146AF4812
:100B080003F046FD01228021284601F00FFACBE7C9
:100B1800A74BA1225A800122DA80042300210AE08F
:100B2800A74AD05C5C1C125D42EA0022A14820F86A
:100B38001120013102333F2BF2DD00243DE016463F
:100B48009380A04D00220821284601F0EFF94FF4C8
:100B5800807305223146994803F01AFD01220821C5
:100B6800284601F0E3F933E0914EB380964D002218
:100B78001021284601F0DAF910230522314693485E
:100B880003F006FD01221021284601F0CFF925E0E7
:100B9800874EB380884D00221021284601F0C6F9FF
:100BA8001023052231468A4803F0F2FC0122102165
:100BB800284601F0BBF918E00134032C00F3D18179
:100BC800A31C7B4A13807B4B33F81430002BB6D11F
:100BD800231D784A32F81330002BC5D104F10803DD
:100BE800744A32F81330002BD2D104F10C03714A45
:100BF80032F81330002BDFD06D4EB3806E4D0022DB
:100C08008021284601F092F91023052231466B48CD
:100C180003F0BEFC01228021284601F087F9CBE7CA
:100C2800634BA2225A800122DA80042300210AE0C1
:100C3800634AD05C5C1C125D42EA00225D4820F8E1
:100C48001120013102333F2BF2DD00243DE016462E
:100C580093805C4D00220821284601F067F94FF483
:100C6800807305223146554803F092FC0122082181
:100C7800284601F05BF933E04D4EB380524D002217
:100C88001021284601F052F91023052231464F4819
:100C980003F07EFC01221021284601F047F925E0E7
:100CA800434EB380444D00221021284601F03EF9FE
:100CB800102305223146464803F06AFC0122102120
:100CC800284601F033F918E00134032C00F3498178
:100CD800A31C374A1380374B33F81430002BB6D196
:100CE800231D344A32F81330002BC5D104F1080310
:100CF800304A32F81330002BD2D104F10C032D4ABC
:100D080032F81330002BDFD0294EB3802A4D002251
:100D18008021284601F00AF9102305223146274888
:100D280003F036FC01228021284601F0FFF8CBE7CA
:100D38001F4BA5225A800122DA80042300213F2B71
:100D48000BDC1F4AD05C5C1C125D42EA0022194889
:100D580020F8112001310233F1E700244FE0164654
:100D68009380184D00220821284601F0DFF84FF43F
:100D7800807305223146114803F00AFC012208213C
:100D8800284601F0D3F845E0094EB3800E4D002205
:100D98001021284601F0CAF81023052231460B48D5
:100DA80003F0F6FB01221021284601F0BFF837E0D6
:100DB8000000002020020020001002583C03002000
:100DC800F002002000080258000002580006002027
:100DD8006C0500206A4EB3806A4D00221021284617
:100DE80001F0A4F8102305223146674803F0D0FB30
:100DF80001221021284601F099F818E00134032C4B
:100E080000F3AF80A31C5E4A1380604B33F81430A4
:100E1800002BA4D1231D5D4A32F81330002BB3D127
:100E280004F10803594A32F81330002BD2D104F1E7
:100E38000C03564A32F81330002BDFD0504EB380E3
:100E4800504D00228021284601F070F81023052219
:100E580031464F4803F09CFB01228021284601F0CF
:100E680065F8CBE74B4AD05C5C1C125D42EA002275
:100E7800464820F81120013102333F2BF2DD0024CF
:100E88003DE016469380444D00220821284601F093
:100E98004DF84FF48073052231463D4803F078FB46
:100EA80001220821284601F041F832E0344EB3808F
:100EB8003A4D00221021284601F038F81023052267
:100EC8003146374803F064FB01221021284601F01F
:100ED8002DF824E02A4EB3802A4D002210212846FE
:100EE80001F024F8102305223146274803F050FB6F
:100EF80001221021284601F019F817E00134032CCB
:100F08002FDCA31C1E4A1380204B33F81430002B0F
:100F1800B7D1231D1D4A32F81330002BC6D104F176
:100F280008031A4A32F81330002BD3D104F10C030A
:100F3800164A32F81330002BE0D0114EB380114D11
:100F480000228021284600F0F1FF102305223146B7
:100F58000F4803F01DFB01228021284600F0E6FF20
:100F6800CCE740220B490F4805F086FD00224FF4DC
:100F780080510D4800F0DAFF04B0BDE8F08700BFEB
:100F880000000020001002586C05002020020020FC
:100F98003C030020F002002000080258000002581C
:100FA80000060020A0060020000C0258FEE7000002
:100FB80008B50E480E4B03604FF4E133436000233D
:100FC8008360C36003610C2242618361C361036271
:100FD80043628362C3620363436304F063FB00B943
:100FE80008BD40F2BA210348FFF7E0FFEC040020F7
:100FF80000100140786D000808B51648164B0360CC
:101008004FF480034360002383600F22C2600361B2
:1010180043614FF0806282614FF00052C261036207
:10102800436283620722C2624FF080424263836355
:10103800C363036443648364C3640365436583656E
:1010480003F0FEF900B908BD40F221210348FFF77B
:10105800ADFF00BF0006002000300140786D000899
:1010680008B51648164B03604FF48003436000230D
:1010780083600F22C260036143614FF08062826126
:101088004FF00052C2610362436283620722C26268
:101098004FF0804242638363C363036443648364A1
:1010A800C36403654365836503F0CAF900B908BDE5
:1010B80040F241210348FFF779FF00BF3C030020BD
:1010C80000380040786D000808B51648164B0360D4
:1010D8004FF480034360002383600F22C2600361E2
:1010E80043614FF0806282614FF04052C2610362F7
:1010F800436283620722C2624FF080424263836385
:10110800C363036443648364C3640365436583659D
:1011180003F096F900B908BD40F261210348FFF7D2
:1011280045FF00BF58040020003C0040786D0008CF
:1011380008B51648164B03604FF48003436000233C
:1011480083600F22C260036143614FF08062826155
:101158004FF04052C2610362436283620722C26257
:101168004FF0804242638363C363036443648364D0
:10117800C36403654365836503F062F900B908BD7C
:1011880040F281210348FFF711FF00BF6C050020E2
:1011980000340140786D000808B51648164B036006
:1011A8004FF480034360002383600F22C260036111
:1011B80043614FF0806282614FF04052C261036226
:1011C800436283620722C2624FF0804242638363B4
:1011D800C363036443648364C364036543658365CD
:1011E80003F02EF900B908BD40F2A2210348FFF729
:1011F800DDFE00BFC403002000140058786D00080D
:1012080000B5CDB0394BDA6822F00402DA6000226A
:1012180001929A6942F440429A619B6903F44043FF
:101228000193019B314B9B6913F4005FFAD00123B2
:1012380039934FF480333A93022342934393449370
:101248003022459246931022479248930C234993A3
:1012580000234A934B9339A801F000FC002835D1AC
:101268003F2331930323329300233393082334938A
:101278004023359336934FF4806237923893022196
:1012880031A801F095FF30BB194B02930023199345
:101298001A9320934FF4801223922D9302A802F000
:1012A800ADF9E8B9134B1868134BA3FB003080095C
:1012B80000F01AFD042000F02DFD002211464FF029
:1012C800FF3000F0D1FC4DB05DF804FB40F2DB11BB
:1012D8000A48FFF76BFE4FF4F6710848FFF766FE01
:1012E8004FF4FD710548FFF761FE00BF0048025842
:1012F8000170040010010020D34D6210786D0008C1
:1013080008B500F069FCFFF77BFFFFF78BF9FFF7E3
:101318004FFEFFF771FEFFF7A3FEFFF7D5FEFFF7BD
:1013280007FFFFF739FF00F057F94FF480410348F2
:1013380000F001FE642000F071FCF6E7000C025892
:1013480000B583B01E4BD3F8F42042F00202C3F874
:10135800F420D3F8F43003F002030193019B032037
:1013680000F070FC002211466FF00B0000F07CFCCE
:10137800002211466FF00A0000F076FC00221146A8
:101388006FF0090000F070FC002211466FF00400B5
:1013980000F06AFC002211466FF0030000F064FCC4
:1013A800002211466FF0010000F05EFC0022114699
:1013B8004FF0FF3000F058FC03B05DF804FB00BFAD
:1013C8000044025870B58AB00368544A93420DD05D
:1013D800534A934226D0534A934249D0524A9342A1
:1013E80063D0524A93427CD00AB070BD504BD3F8B8
:1013F800F02042F48052C3F8F020D3F8F03003F420
:1014080080530093009BE023059302230693002357
:101418000793032308930523099305A9454800F07A
:101428008FFCE1E7424BD3F8E82042F48042C3F84E
:10143800E820D3F8E83003F480430193019B0623A6
:101448000593022606960024079408940525099515
:1014580005A9394800F074FC4FF48063059306969B
:1014680007940894099505A9344800F069FCBBE77E
:101478002F4BD3F8E82042F40042C3F8E820D3F811
:10148800E83003F400430293029B4FF4E0530593C2
:101498000223069300230793032308930623099343
:1014A80005A9254800F04CFC9EE7214BD3F8F02015
:1014B80042F40052C3F8F020D3F8F03003F400539C
:1014C8000393039B64230593022306930023079346
:1014D800032308930523099305A9194800F030FC54
:1014E80082E7134BD3F8F42042F02002C3F8F4202B
:1014F800D3F8F43003F020030493049B38230593B6
:1015080002230693002307930323089308230993D0
:1015180005A90A4800F014FC66E700BF0030014046
:1015280000380040003C00400034014000140058DE
:1015380000440258000002580008025800040258EB
:10154800001002580268124B9A4200D0704700B54A
:1015580087B0104BD3F8F02042F01002C3F8F02007
:10156800D3F8F03003F010030093009B4FF4C063EE
:101578000193022302930023039303230493072375
:10158800059301A9044800F0DBFB07B05DF804FBF4
:101598000010014000440258000002587047FEE75E
:1015A800FEE7FEE7FEE770477047704708B500F0B2
:1015B80023FB00F0C0FB08BD08B5024800F0A8FDF9
:1015C80008BD00BFE80A002008B5024800F0A0FDE9
:1015D80008BD00BFE80E002038B5144C012214499C
:1015E800204604F09DFD134D2946204604F0AFFD2A
:1015F8001149204605F056FA204604F0AFFD01F0E7
:1016080025FA0E4C00220E49204604F089FD294691
:10161800204604F09CFD0B49204605F043FA20467D
:1016280004F09CFD01F012FA38BD00BFC408002088
:10163800D8000020640100200C000020A006002033
:10164800F40000201C0000200268164B9A4200D0CB
:10165800704710B586B04FF4C0530193022302932C
:1016680000240394032304930A23059301A90E4835
:1016780000F066FB0D4BD3F8D82042F00062C3F8A7
:10168800D820D3F8D83003F000630093009B22469B
:101698002146652000F0E8FA652000F017FB06B047
:1016A80010BD00BF00000840000002580044025866
:1016B80008B500F56F71D0F8FC0304F068FD08BDAB
:1016C80008B5C1EBC10293000344D3F80422D0F853
:1016D800FC0304F089FD08BD08B5C1EBC102930005
:1016E80003445A6CD0F8FC0304F0B3FD08BD08B5F8
:1016F800D0F8FC0304F036FE08BD10B50446C368F4
:101708004BB10121D4F8FC0304F01AFED4F8FC0311
:1017180004F0F7FD10BD0021F4E7000010B5044601
:10172800D0F8FC0304F00FFE2268D2F8003E43F024
:101738000103C2F8003E236A23B1034A136943F048
:101748000603136110BD00BF00ED00E008B5D0F836
:10175800FC0304F001FE08BD08B5D0F8FC0304F052
:1017680011FE08BD08B5D0F8FC0304F009FE08BD59
:1017780008B5D0F8FC0304F007FE08BD08B5D0F89A
:10178800FC0304F003FE08BD38B50446037823B112
:101798002378012B2FD0002038BD3048C0F8FC43F7
:1017A800C4F820022E4B0360092343600222C26062
:1017B8000023036143618261C36103628362436200
:1017C800C362036300F01BFC78B9244D80212846CE
:1017D80001F013F940220021284601F0EAF880229E
:1017E8000121284601F0E5F8D2E74FF4A7711D481A
:1017F800FFF7DCFBE9E71C48C0F8FC43C4F820020B
:101808001A4B0360092343600222C260002303616C
:1018180043618261C3610362836201224262C362DF
:101828000363436300F0EBFB88B90F4C4FF400717E
:10183800204601F0E2F880220021204601F0B9F8A4
:101848004FF4BA720121204601F0B3F8A3E740F241
:1018580069110448FFF7AAFBE7E700BFE80E00207C
:1018680000000840B06D0008E80A002000000440AD
:1018780008B5D0F8200200F040FC18B1022803D0C7
:10188800022008BD0020FCE70120FAE710B51C463D
:1018980013462246D0F8200200F078FF18B102283B
:1018A80003D0022010BD0020FCE70120FAE708B5AC
:1018B800D0F8200200F09EFF18B1022803D00220C1
:1018C80008BD0020FCE70120FAE708B5D0F820029F
:1018D80001F011F818B1022803D0022008BD002039
:1018E800FCE70120FAE708B5D0F8200201F036F845
:1018F80018B1022803D0022008BD0020FCE701200F
:10190800FAE7D0F8203211F0800F08D101F07F01FA
:10191800C1EBC1018A00134493F8FA01704701F042
:101928007F01C1EBC1018A00134493F83A00704764
:1019380008B5D0F8200200F017FF18B1022803D02C
:10194800022008BD0020FCE70120FAE708B5D0F81E
:10195800200200F0A7FF18B1022803D0022008BD1A
:101968000020FCE70120FAE708B5D0F8200200F0D3
:101978006CFF18B1022803D0022008BD0020FCE744
:101988000120FAE7704770477047704708B5FEF7BF
:1019980005FF002008BD08B5FEF700FF002008BDC0
:1019A80012230B8000487047AC00002004230B80F2
:1019B80000487047C000002012230B800048704781
:1019C800C400002004230B8000487047C00000209A
:1019D80008B50A4628B10549054804F054FF0348EC
:1019E80008BD0249024804F04EFFF8E7E81200205B
:1019F800EC6D000810B5044C0A462146034804F073
:101A080042FF204610BD00BFE81200200C6E0008FF
:101A180008B50A4628B10549054804F034FF0348CB
:101A280008BD0249024804F02EFFF8E7E81200203A
:101A3800206E000808B50A4628B10549054804F093
:101A480022FF034808BD0249024804F01CFFF8E7DA
:101A5800E8120020306E000808B50A4628B105498A
:101A6800054804F010FF034808BD0249024804F085
:101A78000AFFF8E7E8120020446E000808B50A4695
:101A880028B10549054804F0FEFE034808BD02498F
:101A9800024804F0F8FEF8E7E8120020EC6D0008B0
:101AA80010B5044C0A462146034804F0ECFE2046D3
:101AB80010BD00BFE81200200C6E000808B50A46E9
:101AC80028B10549054804F0DEFE034808BD02496F
:101AD800024804F0D8FEF8E7E8120020206E00085B
:101AE80008B50A4628B10549054804F0CCFE034864
:101AF80008BD0249024804F0C6FEF8E7E8120020D3
:101B0800306E000808B50A4628B10549054804F0B2
:101B1800BAFE034808BD0249024804F0B4FEF8E7DB
:101B2800E8120020446E000810B41549D1F8883036
:101B380043F47003C1F88830124B1A6842F001026E
:101B48001A6000221A611C680F48204018609A61C8
:101B5800DA611A629A62DA621A635A639A63DA631A
:101B68001A645A64186820F4802018601A66074BB3
:101B780001221A604FF000638B605DF8044B7047D8
:101B880000ED00E0004402587FEDF6EA08810051BC
:101B980010B504460E4B18784FF47A73B3FBF0F384
:101BA8000C4A1068B0FBF3F000F09EF868B90F2CEF
:101BB80001D901200AE0002221464FF0FF3000F051
:101BC80053F8034B5C60002000E0012010BD00BF0B
:101BD800180100201001002010B5032000F032F891
:101BE8000020FFF7D5FF10B10124204610BD0446A0
:101BF800FFF7A6FBF9E70000034B1B78034A1168BF
:101C08000B441360704700BF18010020B002002089
:101C1800014B1868704700BFB002002038B5044671
:101C2800FFF7F6FF0546B4F1FF3F02D0044B1B78DF
:101C38001C44FFF7EDFF401BA042FAD338BD00BF9C
:101C4800180100200649CB6823F4E0631B041B0C31
:101C5800000200F4E0600343024A1A43CA60704776
:101C680000ED00E00000FA0530B4154BDB68C3F363
:101C78000223C3F10704042C28BF04241D1D062DCC
:101C880014D9033B4FF0FF3505FA04F421EA0401A7
:101C9800994005FA03F322EA03031943002807DBF6
:101CA8000901C9B2074B195430BC70470023E9E752
:101CB80000F00F000901C9B2034B1954F4E700BF43
:101CC80000ED00E000E400E014ED00E0002807DB90
:101CD80000F01F02400901239340024A42F82030D5
:101CE800704700BF00E100E00138B0F1807F0AD200
:101CF800064B5860064AF02182F8231000209860AD
:101D080007221A6070470120704700BF10E000E00A
:101D180000ED00E0042805D0054A136823F0040309
:101D280013607047024A136843F004031360704756
:101D380010E000E0704708B5FFF7FCFF08BD0000A1
:101D480000230F2B00F2E980F0B482B03DE00922B5
:101D580000E00022B2403A430234704E46F8242094
:101D68006F4A1468EA4302EA04064F6817F4803F92
:101D780001D045EA04066A4C2660666802EA060451
:101D88004F6817F4003F01D045EA0604644E7460BA
:101D98004FF0B044246802EA04064F6817F4801F25
:101DA80001D045EA04064FF0B0442660646822403A
:101DB8004E6816F4001F01D045EA04024FF0B04403
:101DC800626001330F2B00F2A58001229A400C6853
:101DD80004EA0205AA42F4D14C68122C18BF022C5E
:101DE80010D1DE08083650F826C003F00704A70013
:101DF8000F24BC402CEA040C0C69BC4044EA0C04D7
:101E080040F8264004685F000326BE40F64306EA11
:101E1800040C4C6804F00304BC4044EA0C0404605D
:101E28004C6804F1FF3C112C18BFBCF1010F01D91B
:101E3800122C11D1846806EA040CCC68BC4044EA30
:101E48000C048460446824EA020C4C68C4F3001251
:101E58009A4042EA0C024260C26816408A68BA4058
:101E68003243C2604A6812F0805FAAD02D4AD2F885
:101E7800F44044F00204C2F8F440D2F8F42002F02E
:101E880002020192019A9C08A61C244A52F8267064
:101E980003F0030296000F22B24027EA0207224A03
:101EA80090423FF456AF02F58062904222D002F58C
:101EB8008062904220D002F5806290421ED002F5E6
:101EC800806290421CD002F5806290421AD002F5DE
:101ED8008062904218D002F58062904216D002F5D6
:101EE8008062904214D002F5806290423FF42FAF96
:101EF8000A222FE701222DE702222BE7032229E7F6
:101F0800042227E7052225E7062223E7072221E7FF
:101F180008221FE702B0F0BC704770470004005861
:101F28008000005800440258000002580AB9418352
:101F380070470183704743695940416170472DE9F3
:101F4800F04383B007460D46D0F80080CA00521A05
:101F580093000344DE6C1A6DB61A1B6C9E4200D9BE
:101F68001E4616F1030902D44FEAA90919E009F13E
:101F78000309F9E716F103092FD44FEAA909EB0081
:101F88005B1B9C003C44616C3B7C0093B3B2EAB29F
:101F9800404603F07DFF636C33446364236D334430
:101FA8002365414608EB451303F510639B699BB213
:101FB8004B4515D9EA00521B93003B441A6DDB6C64
:101FC8009A420DD263B19E1AC5EBC50293003B44F9
:101FD8001B6C9E42CED91E46CCE709F10309CCE71B
:101FE800002E03DD002003B0BDE8F0830123AB40E1
:101FF800D1F8345825EA0305C1F83458F2E7002827
:1020080079D0F0B58BB00446032380F8B933FFF7D5
:102018001BFB206803F0BEFB254655F8107B6E4677
:102028000FCD0FC60FCD0FC695E8030086E8030055
:10203800231D0ECB384603F069FB0021206803F00E
:10204800AFFB002210E0D100891A8B002344012144
:1020580083F8391083F83820DA87002183F83B1099
:1020680019645964D96401320E2AECD9002218E0A7
:10207800D100891A8B002344002183F8F91183F8D1
:10208800F821DA8783F8FB11C3F80012C3F80412A9
:10209800C3F80C12236802F1400003EB8003596077
:1020A80001320E2AE4D9254655F8107B6E460FCD2D
:1020B8000FC60FCD0FC695E8030086E80300231D61
:1020C8000ECB384603F082FB012384F8B933A36AA8
:1020D800012B08D0636A012B09D0206803F083FF25
:1020E80000200BB0F0BD204600F08CFCF2E7204643
:1020F80000F09CFCF1E70120704710B50446006829
:1021080003F065FF206803F03FFB002010BD0000CE
:102118002DE9F04704460568284603F09FFF08B1FB
:10212800BDE8F0870646206803F069FF0028F7D06D
:10213800206803F064FF10F0020F02D02368022227
:102148005A61206803F05BFF10F4002F40F0908084
:102158003746206803F053FF10F4802F40F01581B4
:10216800206803F04CFF0028C0F28181206803F04A
:1021780046FF10F4006F09D0D5F8083813F0010FA6
:1021880040F08E8123684FF400625A61206803F0A2
:1021980036FF10F0006F14D023684FF000625A61C8
:1021A80094F8EC33002B40F07F81012184F8EC1384
:1021B80023685B6DC3F38303C4F8F033204600F053
:1021C80043FC206803F01BFF10F4805F40F070812F
:1021D800206803F014FF10F4005F40F0B881206815
:1021E80003F00DFF10F0100F14D02268936923F04C
:1021F800100393612E6A06F00F08C6F34343022BBF
:1022080000F05082062B00F06E822268936943F03A
:1022180010039361206803F0F2FE10F0080F40F0FD
:102228007682206803F0EBFE10F4801F40F076827F
:10223800206803F0E4FE10F4001F40F07882206864
:1022480003F0DDFE10F0804F40F07A82206803F042
:10225800D6FE10F0040F3FF463AF23685D6815F0F5
:10226800040F40F07582226853682B43536057E788
:10227800206803F0C8FE8046374648E0D5F8082BAA
:1022880012F4004F61D04FF400429A605DE0F9000B
:10229800C91B8A002244D2F800121B69C3F3120337
:1022A800C91AC2F81012D2F80012D2F804320B443C
:1022B800C2F804324CE0002F51D1C7EBC70293009B
:1022C8002344D3F80C32002B49D104F56F72012155
:1022D800206803F0E3FE42E02046FFF7E9F905EB4A
:1022E80047130822C3F8082B19F0100F04D005EB88
:1022F80047131022C3F8082B19F0200F04D005EB60
:1023080047132022C3F8082B01374FEA5808B8F1C1
:10231800000F3FF41EAF18F0010FF5D05FFA87FAEF
:102328005146206803F07FFE814610F0010F16D059
:1023380005EB471303F5306301229A60296CBC4A08
:10234800914202D92269012A98D02269012A9ED095
:1023580051462046FFF7B4F92369012BABD019F099
:10236800080FC1D02A6CB24B9A42B5D92369012B08
:10237800B2D1D5F8083B13F4004FADD005EB4713A5
:102388004FF40042C3F8082BA6E7206803F043FE89
:10239800804637462EE0FA00D21B93002344196C7E
:1023A8005A6C0A445A6446E019F0080F04D005EB49
:1023B80047130822C3F8082919F0100F04D005EBB9
:1023C80047131022C3F8082919F0400F04D005EB71
:1023D80047134022C3F8082919F0020F04D005EB6F
:1023E80047130222C3F8082919F0800F3AD10137A0
:1023F8004FEA5808B8F1000F3FF4B2AE18F0010FD9
:10240800F5D05FFA87FA5146206803F015FE814639
:1024180010F0010FC8D0012202FA07F0D5F83438BD
:1024280023EA0003C5F8343805EB4713C3F8082935
:1024380023699342AFD051462046FFF74DF92369EF
:10244800012BB1D1002FAFD1C7EBC70293002344B2
:10245800DB6C002BA8D104F56F720121206803F012
:102468001DFEA1E739462046FFF769FDBFE7D5F80D
:10247800043823F00103C5F8043894F8EC33012B31
:1024880007D02046FFF762F923684FF000425A61EF
:102498006CE6002184F8EC13204600F0D5FAF3E747
:1024A8002046FFF73BF96DE62046FFF737F988E647
:1024B800A94605F50068D8F8043023F00103C8F8E8
:1024C80004301021206803F02FFA07E009EB4613C7
:1024D800FF22C3F80829C3F8082B01366368B34202
:1024E800F4D84FF0FF33C8F81830D8F81C3043F050
:1024F8000113C8F81C30236BE3B1D8F8843043F0DB
:102508000B03C8F88430D8F8443043F00B03C8F8FC
:102518004430D5F8003823F4FE63C5F8003804F5D4
:102528006F72217C206803F0B9FD23684FF4805254
:102538005A614DE6D8F8143043F00B03C8F814304C
:10254800D8F8103043F00B03C8F81030E1E72068E2
:1025580003F088FD2268D36823F47053D3602068A1
:1025680003F00FFA88B90023E3604FF40073636146
:102578002268D36843F41053D3602046FFF7BDF8B0
:1025880023684FF400525A6129E60323E36040238D
:10259800636100F005FF274B0344274A934205D89F
:1025A8002268D36843F47053D360E6E7234B0344AF
:1025B800234A934205D82268D36843F46053D36012
:1025C800DBE7204B0344204A934205D82268D368AE
:1025D80043F45053D360D0E71C4B03441C4A934246
:1025E80005D82268D36843F44053D360C5E7194B34
:1025F8000344194A934205D82268D36843F43053F8
:10260800D360BAE7154B0344154A934205D82268AC
:10261800D36843F42053D360AFE7124B0344124A04
:10262800934223D82268D36843F41053D360A4E7B5
:102638000931544F405327FFFF340C00401E1BFF45
:102648003F420F0000DC0BFF7F4F1200808CF9FE29
:102658001FD6130060B6E5FE5FE3160000D3CEFE7A
:102668003F771B00C05BB3FEBF9121003A4B034488
:102678003A4A934205D82268D36843F40053D3609A
:102688007BE7374B0344374A934205D82268D3681F
:1026980043F4E053D36070E72268D36843F4C0532F
:1026A800D3606AE747F6F0731E423FF4AEAD3609D1
:1026B8004FEAC80AAAEB08034FEA8309A144C6F304
:1026C8000A02D9F80412284603F0F6FBC6F30A06F4
:1026D800D9F804323344C9F80432D9F810321E4408
:1026E800C9F8106291E5082204F56F71284603F0D5
:1026F800E3FBC6F30A164FEAC803A3EB08018A00F6
:102708002244D2F810321E44C2F810627DE52046F9
:10271800FEF7EDFF236808225A6182E5F9B22046E8
:10272800FFF720F823684FF480125A6180E5F9B268
:102738002046FFF711F823684FF400125A617EE52E
:102748002046FFF715F823684FF080425A617DE56F
:102758002046FFF713F886E500CA91FE1F7538007A
:10276800E05459FEDF9C410090F8B833012B0BD0A0
:1027780010B50446012380F8B833006803F017FC4D
:10278800002084F8B80310BD0220704770B54DB220
:10279800002D22DB01F07F06C6EBC606B40004F567
:1027A800FC74044401F07F012170ED0F6570A26094
:1027B800E37005B1E180022B17D090F8B833012BF4
:1027C80016D00546012380F8B8332146006803F087
:1027D800F9F8002085F8B80370BD01F07F06C6EB54
:1027E800C606B40038340444DCE700232371E4E768
:1027F8000220F1E710B54AB2002A1CDB01F07F0481
:10280800C4EBC404A30003F5FC73034401F07F0187
:102818001970D20F5A7090F8B823012A13D00446C1
:10282800012280F8B8231946006803F013F9002044
:1028380084F8B80310BD01F07F04C4EBC404A300FE
:1028480038330344E2E70220F4E770B501F07F066D
:10285800F500A91B8C0004F5FC740119AD1BAC0034
:102868000444C4F80422C4F80C320023C4F810321B
:1028780084F8F93184F8F8610369012B06D066B150
:10288800DAB2006803F026F9002070BDC6EBC60571
:10289800AC000444C4F80822F1E7DAB2006803F097
:1028A80049FAF1E770B501F07F06F500A91B8C0025
:1028B80038340119AD1BAC0004446264E36400239E
:1028C8002365012384F8393084F838600369012BC3
:1028D80006D05EB1DAB2006803F0FCF8002070BDE3
:1028E800C6EBC605AC000444A264F2E7DAB200689D
:1028F80003F020FAF2E738B54AB2002A1DDBC1EB33
:10290800C104A30003F5FC73034401249C7001F087
:102918007F041C70D20F5A7090F8B823012A1BD07C
:102928000546012280F8B8231946006803F0D8FA52
:102938005CB1002085F8B80338BD01F07F04C4EB12
:10294800C404A30038330344DFE705F56F72297C1C
:10295800286803F0A3FBECE70220EDE710B54AB2C4
:10296800002A1CDBC1EBC104A30003F5FC7303447C
:1029780000249C7001F07F011970D20F5A7090F8F2
:10298800B823012A13D00446012280F8B823194637
:10299800006803F0D7FA002084F8B80310BD01F0EE
:1029A8007F04C4EBC404A30038330344E0E70220E7
:1029B800F4E730B40468606A29B10D46A36A00EBF5
:1029C800134000230CE040EA0240A06212E003F149
:1029D800400104EB8101496800EB11400133DBB28F
:1029E800691E8B42F3DB40EA024005F13F0104EB2C
:1029F80081014860002030BC70470368596200209C
:102A080070470000024603680121C0F8F413002053
:102A180082F8EC039A6942F000629A61596D024AA1
:102A28000A435A65704700BF03000010036801227B
:102A3800C0F8F8239A6B42F400329A639A6B42F416
:102A480080229A630020704770470000024AD368CA
:102A580043F08073D36070470048025838B5044685
:102A6800036813F0010F2AD0AC4B1B6903F038033D
:102A7800102B1BD0A94B1B6903F03803182B0FD060
:102A88006368B3F5803F44D0002B58D1A34B1A6834
:102A980022F480321A601A6822F480221A603DE01B
:102AA8009E4B9B6A03F00303022BE9D19B4B1B68E7
:102AB80013F4003F03D06368002B00F0838223687F
:102AC80013F0020F00F09480944B1B6913F0380F39
:102AD80060D0924B1B6903F03803182B55D0E3687C
:102AE800002B00F0BD808D490A6822F019021343BB
:102AF8000B60FFF78DF80546884B1B6813F0040F31
:102B080040F09E80FFF784F8401B0228F4D9032088
:102B18005DE2824A136843F48033136063682BB321
:102B2800FFF776F805467D4B1B6813F4003FC6D1C6
:102B3800FFF76EF8401B6428F5D9032047E2B3F588
:102B4800A02F09D0754B1A6822F480321A601A68CF
:102B580022F480221A60E1E7704B1A6842F480225E
:102B68001A601A6842F480321A60D7E7FFF750F803
:102B780005466A4B1B6813F4003FA0D0FFF748F8DE
:102B8800401B6428F5D9032021E2644B9B6A13F0AB
:102B9800030FA4D1614B1B6813F0040F03D0E36843
:102BA800002B00F011825D4A136823F01903E168D5
:102BB8000B431360FFF72CF80546584B1B6813F0BE
:102BC800040F06D1FFF724F8401B0228F5D903208B
:102BD800FDE15248436823F47C3321694FF47C3289
:102BE80092FAA2F2B2FA82F201FA02F213434360B5
:102BF800236813F0100F66D0484B1B6903F03803A5
:102C0800082B47D0454B1B6903F03803182B3BD0E2
:102C1800E369002B00F08480404A136843F0800386
:102C28001360FEF7F5FF05463C4B1B6813F4807FE5
:102C380064D1FEF7EDFF401B0228F5D90320C6E159
:102C48003648436823F47C3321694FF47C3292FA86
:102C5800A2F2B2FA82F201FA02F213434360C7E722
:102C68002E4A136823F001031360FEF7D1FF0546CF
:102C78002A4B1B6813F0040FBAD0FEF7C9FF401B9C
:102C88000228F5D90320A2E1244B9B6A03F0030331
:102C9800012BBDD1214B1B6813F4807F04D0E3695D
:102CA800802B01D0012092E11C48436823F0F843AF
:102CB800216A4FF0F84292FAA2F2B2FA82F201FACD
:102CC80002F213434360236813F0080F50D063697E
:102CD800002B39D0114A536F43F001035367FEF7B5
:102CE80097FF05460D4B5B6F13F0020F40D1FEF7BF
:102CF8008FFF401B0228F5D9032068E10748436885
:102D080023F0F843216A4FF0F84292FAA2F2B2FA9D
:102D180082F201FA02F213434360D4E700440258F6
:102D2800AC4A136823F080031360FEF771FF054671
:102D3800A84B1B6813F4807FC5D0FEF769FF401BC2
:102D48000228F5D9032042E1A24A536F23F0010378
:102D58005367FEF75DFF05469E4B5B6F13F0020F4E
:102D680006D0FEF755FF401B0228F5D903202EE1B7
:102D7800236813F0200F29D0A3699BB1954A1368E3
:102D880043F480531360FEF743FF0546914B1B68DD
:102D980013F4005F1AD1FEF73BFF401B0228F5D958
:102DA800032014E18B4A136823F480531360FEF761
:102DB8002FFF0546874B1B6813F4005F06D0FEF70C
:102DC80027FF401B0228F5D9032000E1236813F0F0
:102DD800040F21D1636A002B00F0F8807D4A126944
:102DE80002F03802182A00F0F380022B75D0794AD5
:102DF800136823F080731360FEF70AFF0446754BCF
:102E08001B6813F0007F00F0DB80FEF701FF001B5A
:102E18000228F4D90320DAE06F4A136843F4807378
:102E28001360FEF7F5FE05466B4B1B6813F4807FB5
:102E380006D1FEF7EDFE401B6428F5D90320C6E055
:102E4800A368012B0AD00BBB624B1A6F22F0010258
:102E58001A671A6F22F004021A6704E05D4A136FBA
:102E680043F001031367A36833B3FEF7D1FE0546A9
:102E7800584B1B6F13F0020FACD1FEF7C9FE401B75
:102E880041F288339842F3D90320A0E0052B09D0FA
:102E9800504B1A6F22F001021A671A6F22F00402CF
:102EA8001A67E0E74B4B1A6F42F004021A671A6F71
:102EB80042F001021A67D6E7FEF7AAFE0546454B1F
:102EC8001B6F13F0020F85D0FEF7A2FE401B41F2E4
:102ED80088339842F3D9032079E03E4A136823F0F7
:102EE80080731360FEF794FE05463A4B1B6813F097
:102EF800007F06D0FEF78CFE401B0228F5D9032080
:102F080065E0344B996A354A0A40A16AE06A41EAA9
:102F180000110A439A62226B013AC2F30802616BFC
:102F28000139490289B20A43A16B0139090401F444
:102F3800FE010A43E16B0139090601F0FE410A432B
:102F48001A63596B264A0A40A06C4FF6F87191FA39
:102F5800A1F1B1FA81F100FA01F10A435A63DA6A80
:102F680022F00C02216C0A43DA62DA6A22F00202C9
:102F7800616C0A43DA62DA6A42F48032DA62DA6A47
:102F880042F40032DA62DA6A42F48022DA62DA6AF9
:102F980042F00102DA621A6842F080721A60FEF7A3
:102FA80037FE04460B4B1B6813F0007F06D1FEF773
:102FB8002FFE001B0228F5D9032008E0002006E0B8
:102FC800002004E0012002E0012000E0002038BDDC
:102FD8000120FCE700440258004802580CFCFFFF9F
:102FE8000700FFFF6D4B1B6903F03803102B00F03F
:102FF800D180182B0FD00BB169487047674B1B68FD
:1030080013F0200F00F0C880644B1B68C3F3C103A2
:103018006448D840704770B4604DAC6A04F003044B
:10302800AE6AC6F30516EB6A03F001036D6BC5F3D0
:10303800CC0503FB05F307EE903AF8EE677A012C0E
:1030480060D0F4B1022C00F08980554BB3FBF6F345
:1030580007EE103AB8EE477A504B1B6BC3F30803E0
:10306800DFED516A67EEA67A06EE903AF8EE666AE8
:1030780076EEA77AF7EE006A77EEA67A27EE277A39
:103088005BE0464B1B6813F0200F1FD0434A1368C0
:10309800C3F3C1034348D840B0FBF6F307EE103A38
:1030A800B8EE477A136BC3F30803DFED3F6A67EEA8
:1030B800A67A06EE903AF8EE666A76EEA77AF7EE0A
:1030C800006A77EEA67A27EE277A36E03548B0FB15
:1030D800F6F307EE103AB8EE477A304B1B6BC3F3A2
:1030E8000803DFED316A67EEA67A06EE903AF8EE4D
:1030F800666A76EEA77AF7EE006A77EEA67A27EE8A
:10310800277A1AE02649B1FBF6F307EE103AB8EE33
:10311800477A224B1B6BC3F30803DFED236A67EE84
:10312800A67A06EE903AF8EE666A76EEA77AF7EE99
:10313800006A77EEA67A27EE277A184B1B6BC3F343
:103148004623013307EE903AF8EE676AC7EE267A0F
:10315800FCEEE77A17EE900A70BC7047134AB2FB90
:10316800F6F307EE103AB8EE477A0C4B1B6BC3F335
:103178000803DFED0D6A67EEA67A06EE903AF8EEE0
:10318800666A76EEA77AF7EE006A77EEA67A27EEF9
:10319800277AD2E70548704702487047004402582A
:1031A80000093D000090D003000000390048E80104
:1031B800774B1B6803F007038B420CD2744A1368E1
:1031C80023F007030B431360136803F007038B42D4
:1031D80001D00120704770B5036813F0020F06D0C4
:1031E8006C4A936923F00F03C468234393610D4627
:1031F8000446036813F0010F72D0664A936923F4FA
:10320800706381680B4393614368022B0AD0032BD8
:103218002BD0012B30D05F4A126812F0040F06D170
:103228000120B2E0126812F4003F00F0AF80594963
:103238000A6922F0070213430B61FEF7E9FC064610
:103248006368022B1FD0032B2CD0012B39D0514B94
:103258001B6913F0380F43D0FEF7DAFC801B41F2EC
:1032680088339842F3D903208FE04A4A126812F053
:10327800007FDCD1012088E0464A126812F4807F82
:10328800D5D1012081E0434B1B6903F03803102B93
:1032980026D0FEF7BDFC801B41F288339842F2D954
:1032A800032072E03B4B1B6903F03803182B17D03F
:1032B800FEF7AEFC801B41F288339842F2D9032016
:1032C80063E0344B1B6903F03803082B08D0FEF782
:1032D8009FFC801B41F288339842F2D9032054E0C6
:1032E8002B4B1B6803F00703AB420CD9284A136821
:1032F80023F007032B431360136803F00703AB4263
:1033080001D0012041E0236813F0040F06D0214AC0
:10331800936923F0700321690B439361236813F0C9
:10332800080F06D01B4AD36923F0700361690B4369
:10333800D361236813F0100F06D0164AD36923F41B
:10334800E063A1690B43D361236813F0200F06D013
:10335800104A136A23F07003E1690B431362FFF705
:1033680041FE0C4B9B6903F470634FF4807292FA30
:10337800A2F2B2FA82F2D340074AD35CD840074B94
:1033880018600020FEF704FC002070BD0120FCE757
:103398000020005200440258506D0008100100201F
:1033A80008B500F0A1FF084B9B6903F00F03012249
:1033B80092FAA2F2B2FA82F2D340044AD35CD8401D
:1033C800034B186008BD00BF00440258506D000848
:1033D8001401002008B5FFF7E3FF074BDB6903F092
:1033E8007003102292FAA2F2B2FA82F2D340034A90
:1033F800D35CD84008BD00BF00440258506D000897
:1034080008B5FFF7CDFF074BDB6903F4E0634FF422
:10341800807292FAA2F2B2FA82F2D340024AD35CE4
:10342800D84008BD00440258506D0008384B9B6ACC
:1034380003F00303032B69D070B50E460446344AE3
:10344800136823F080631360FEF7E2FB0546304BF8
:103458001B6813F0006F06D0FEF7DAFB401B02284A
:10346800F5D9032070BD2A4A936A23F47C33216876
:1034780043EA013393626368013BC3F30803A1681D
:103488000139490289B20B43E1680139090401F4A1
:10349800FE010B4321690139090601F0FE410B4386
:1034A8009363D36A23F0C00361690B43D362D36A81
:1034B80023F02003A1690B43D362BEB9D36A43F456
:1034C8000023D362124A136843F080631360FEF747
:1034D8009FFB04460E4B1B6813F0006F14D1FEF7D8
:1034E80097FB001B0228F5D90320BBE7012E05D066
:1034F800074AD36A43F40013D362E3E7044AD36A62
:1035080043F48013D362DDE70020ABE70120704766
:1035180000440258384B9B6A03F00303032B69D01D
:1035280070B50E460446344A136823F0805313607E
:10353800FEF76EFB0546304B1B6813F0005F06D0A4
:10354800FEF766FB401B0228F5D9032070BD2A4A06
:10355800936A23F07C73216843EA0153936263689A
:10356800013BC3F30803A1680139490289B20B433F
:10357800E1680139090401F4FE010B4321690139AD
:10358800090601F0FE410B431364D36A23F4406338
:1035980061690B43D362D36A23F40073A1690B43B7
:1035A800D362BEB9D36A43F48003D362124A136864
:1035B80043F080531360FEF72BFB04460E4B1B6849
:1035C80013F0005F14D1FEF723FB001B0228F5D986
:1035D8000320BBE7012E05D0074AD36A43F0807366
:1035E800D362E3E7044AD36A43F40003D362DDE716
:1035F8000020ABE70120704700440258F8B50446A4
:10360800036813F0006F2BD0436EB3F5801F18D0FA
:1036180007D9B3F5001F1DD0B3F5401F2ED10026E2
:1036280006E05BBBA14AD36A43F40033D3620026A9
:103638009E4A136D23F44013616E0B4313650025F6
:1036480010E002210430FFF7F1FE0646002EEFD00D
:10365800354607E002212430FFF75CFF0646F5E710
:1036680000252E46236813F4807F28D0636D042B31
:1036780022D8DFE803F006141A0B0B0001252E46AA
:10368800F0E78A4AD36A43F40033D362AEB9874A73
:10369800136D23F00703616D0B4313650FE00021E1
:1036A800201DFFF7C3FE0646F0E7002104F12400C1
:1036B800FFF730FF0646E9E701263543EDB22368F8
:1036C80013F4007F14D0A36D802B35D008D823B312
:1036D800402B0AD10021201DFFF7A8FE064621E055
:1036E800C02B1FD0B3F5807F1CD001263543EDB227
:1036F800236813F4806F2FD0D4F8A430B3F5800F6B
:103708004FD020D8002B3CD0B3F5001F21D1002189
:10371800201DFFF78BFE064638E0644AD36A43F45F
:103728000033D362002EE1D1604A136D23F4E073B5
:10373800A16D0B431365DBE7002104F12400FFF7BB
:10374800E9FE0646EEE7B3F5C00F1FD0B3F5000F4C
:103758001CD001263543EDB2236813F4006F30D036
:10376800D4F8A830B3F1007F48D021D8002B35D049
:10377800B3F1807F22D10021201DFFF757FE0646B6
:1037880031E04A4AD36A43F40033D362002EE1D1D0
:10379800464A936D23F46003D4F8A4100B43936551
:1037A800DAE7002104F12400FFF7B4FE0646EDE74E
:1037B800B3F1407F17D0B3F1806F14D001263543A1
:1037C800EDB2236813F0007F23D0A36C102B34D004
:1037D8001BD9202B40D0302B34D017E0334AD36A82
:1037E80043F40033D362002EE9D1304A936D23F0BD
:1037F800E063D4F8A8100B439365E2E7002104F1D5
:103808002400FFF787FE0646EDE7DBB101263543C6
:10381800EDB2236813F4805F2DD0E36DB3F5005F3C
:1038280055D01FD8002B43D0B3F5805F20D100219D
:10383800201DFFF7FBFD06463FE01C4AD36A43F410
:103848000033D362002EE2D1184AD36C23F0300340
:10385800A16C0B43D364DCE70221201DFFF7E6FDD2
:103868000646EFE7B3F5405F27D0B3F5804F24D085
:1038780001263543EDB2236813F4005F3AD0236E76
:10388800B3F5003F53D029D83BB1B3F5803F2ED1D3
:103898000121201DFFF7CAFD06464EBB034A136DE2
:1038A80023F4E023216E0B43136523E00044025800
:1038B800944AD36A43F40033D362002ED9D1914A93
:1038C800136D23F4E043E16D0B431365D3E7002147
:1038D80004F12400FFF71EFE0646EEE7B3F5802F3D
:1038E800DBD0B3F5A02FD8D0B3F5403FD5D0012613
:1038F8003543EDB2236813F4804F2BD0D4F8AC30A5
:10390800B3F1005F40D019D83BB1B3F1805F1ED14D
:103918000121201DFFF78AFD0646CEB9794A936D2D
:1039280023F0E043D4F8AC100B43936512E0012177
:1039380004F12400FFF7EEFD0646AEE7B3F1804F31
:10394800EBD0B3F1A04FE8D0B3F1405FE5D001264A
:103958003543EDB2236813F4004F0AD0E36EB3F198
:10396800805F18D0B3F1005F24D0CBB10126354376
:10397800EDB2236813F0807F39D0636C032B33D802
:10398800DFE803F0231E2C23012104F12400FFF7B4
:10399800C1FD0646C1E75B4AD36A43F40033D362EC
:1039A800002EE4D1574A136D23F04053E16E0B43C8
:1039B8001365DEE70121201DFFF738FD0646EFE716
:1039C800504AD36A43F40033D36276B94D4AD36C74
:1039D80023F00303616C0B43D36408E00221201D2C
:1039E800FFF724FD0646F0E701263543EDB22368CC
:1039F80013F4800F1FD1236813F0010F00F0A0808B
:103A0800A36F282B00F29980DFE803F08797979738
:103A1800979797978297979797979797909797974A
:103A2800979797978797979797979797879797973E
:103A3800979797978700344A136843F48073136005
:103A4800FEF7E6F80746304B1B6813F4807F05D174
:103A5800FEF7DEF8C01B6428F5D90326002E4DD1E9
:103A6800284B1B6FD4F8B020534013F4407F0CD080
:103A7800244B1A6F22F44072196F41F48031196790
:103A8800196F21F4803119671A67D4F8B030B3F58B
:103A9800807F15D07EBBD4F8B03003F44072B2F505
:103AA800407F1ED0174A136923F47C5313611549CC
:103AB8000B6FD4F8B020C2F30B0213430B679AE7DD
:103AC800FEF7A6F807460F4B1B6F13F0020FE1D164
:103AD800FEF79EF8C01B41F288339842F3D90326BB
:103AE800D8E70848026922F47C52084901EA13130E
:103AF80013430361DBE73543EDB27CE73543EDB2B1
:103B080079E700BF0044025800480258CFFFFF0081
:103B18000121201DFFF78AFC06467EB9AC4A536D89
:103B280023F03803A16F0B43536509E0012104F129
:103B38002400FFF7EFFC0646EFE701263543EDB218
:103B4800236813F0020F1FD0636F052B19D8DFE825
:103B580003F00803110808080121201DFFF766FC7F
:103B680006467EB99A4A536D23F00703616F0B43EB
:103B7800536509E0012104F12400FFF7CBFC064658
:103B8800EFE701263543EDB2236813F0040F21D087
:103B9800D4F89030052B1AD8DFE803F00803120890
:103BA80008080121201DFFF741FC064686B9884A0E
:103BB800936D23F00703D4F890100B43936509E045
:103BC800012104F12400FFF7A5FC0646EEE70126D3
:103BD8003543EDB2236813F0200F24D0D4F88C308D
:103BE800B3F1005F3CD012D83BB1B3F1805F17D17D
:103BF8000021201DFFF71AFC064696B9744A536D3A
:103C080023F0E043D4F88C100B4353650BE0B3F179
:103C1800804FF2D0B3F1A04FEFD0B3F1405FECD0BA
:103C280001263543EDB2236813F0400F2BD0D4F8AA
:103C38009830B3F5006F44D019D83BB1B3F5806F15
:103C48001ED10021201DFFF7F1FB0646CEB9604AC0
:103C5800936D23F4E053D4F898100B43936512E066
:103C6800022104F12400FFF755FC0646C5E7B3F529
:103C7800805FEBD0B3F5A05FE8D0B3F5406FE5D037
:103C880001263543EDB2236813F0800F2CD0D4F809
:103C98009C30B3F5804F00F08B8019D83BB1B3F559
:103CA800005F1ED10021201DFFF7C0FB0646CEB9DC
:103CB800474A936D23F46043D4F89C100B439365F3
:103CC80012E0022104F12400FFF724FC0646BDE7B8
:103CD800B3F5004FEBD0B3F5204FE8D0B3F5C04FA4
:103CE800E5D001263543EDB2236813F0080F0AD05A
:103CF800D4F88030B3F5805F61D035494A6D22F43D
:103D0800405213434B65236813F0100F0AD0D4F8C0
:103D18009430B3F5807F5DD02D498A6D22F44072CE
:103D280013438B65236813F4002F0CD0D4F8A0300C
:103D3800B3F5803F66D0B3F5003F58D0002B51D083
:103D480001263543EDB2236813F4802F0DD0D4F843
:103D58008430B3F5001F6CD0B3F5401F5ED0B3F5C7
:103D6800801F56D001263543EDB2236813F4803FF7
:103D780008D0E36C002B63D0B3F5803F6FD00126E9
:103D88003543EDB2236813F0005F6ED1236813F456
:103D9800003F77D0E36FB3F5807F00F0AA806CD93D
:103DA800B3F5007F00F0AA80B3F5407F67D1A5E0A6
:103DB800022104F12400FFF7ADFB064677E7022154
:103DC80004F12400FFF7A6FB0543EDB29BE700BF13
:103DD80000440258022104F12400FFF79BFB05432D
:103DE800EDB29FE70021201DFFF720FB0646002EBD
:103DF800A7D14B4A936D23F44033D4F8A0100B435A
:103E08009365A0E7022104F12400FFF783FB06462F
:103E1800EDE7434AD36A43F40033D362002EA2D1BC
:103E28003F4A536D23F44013D4F884100B43536571
:103E38009BE7012104F12400FFF76CFB0646EDE740
:103E4800374AD36A43F40033D362002E98D1344AF8
:103E5800D36C23F48033E16C0B43D36492E70221E3
:103E6800201DFFF7E3FA0646EFE7022104F12400DC
:103E7800FFF750FB0543EDB288E7002B3ED0012643
:103E88003543EDB2236813F4801F06D0244A136D1E
:103E980023F00043216F0B431365236813F0805F01
:103EA80007D01F4A136923F48043D4F8B4100B4396
:103EB8001361236813F4001F06D0194A136D23F009
:103EC8008073A16E0B431365236813F0804F09D0EC
:103ED800134B1A6922F400421A611A69D4F8B8100F
:103EE8000A431A612368002B12DB05B10125284615
:103EF800F8BD0B4AD36A43F40033D362002EBFD116
:103F0800074A536D23F44073E16F0B435365B9E7D8
:103F1800034AD36C23F04053216D0B43D364E4E789
:103F28000044025808B5FFF73BFA074B1B6A03F039
:103F38007003102292FAA2F2B2FA82F2D340034A34
:103F4800D35CD84008BD00BF00440258506D00083B
:103F5800F0B46D4CA76A07F00307A16AC1F3053CEA
:103F6800E66A06F01006E36BC3F3CC0306FB03F620
:103F780007EE906AB8EE677A012F60D0F7B1022F8A
:103F880000F0A580614BB3FBFCF307EE903AF8EE26
:103F9800677A5D4B9B6BC3F30803DFED5D6A27EE21
:103FA800267A06EE903AF8EE666A36EE877AF7EEEB
:103FB800006A37EE267A67EE877A5BE0524B1B6819
:103FC80013F0200F1FD0504A1368C3F3C103514D9B
:103FD800DD40B5FBFCF307EE903AF8EE677A936B99
:103FE800C3F30803DFED4A6A27EE267A06EE903A15
:103FF800F8EE666A36EE877AF7EE006A37EE267ACA
:1040080067EE877A36E0434CB4FBFCF307EE903A50
:10401800F8EE677A3C4B9B6BC3F30803DFED3C6A11
:1040280027EE267A06EE903AF8EE666A36EE877A3A
:10403800F7EE006A37EE267A67EE877A1AE0334998
:10404800B1FBFCF307EE903AF8EE677A2E4B9B6BC8
:10405800C3F30803DFED2E6A27EE267A06EE903AC0
:10406800F8EE666A36EE877AF7EE006A37EE267A59
:1040780067EE877A244A936BC3F34623013307EE2E
:10408800103AB8EE477AC7EE876AFCEEE66AC0EDEA
:10409800006A936BC3F30643013307EE103AB8EE98
:1040A800477AC7EE876AFCEEE66AC0ED016A936B51
:1040B800C3F30663013307EE103AB8EE477AC7EE4A
:1040C800876AFCEEE66AC0ED026AF0BC7047124AE5
:1040D800B2FBFCF307EE903AF8EE677A0A4B9B6B5B
:1040E800C3F30803DFED0A6A27EE267A06EE903A54
:1040F800F8EE666A36EE877AF7EE006A37EE267AC9
:1041080067EE877AB6E700BF0044025800093D0011
:10411800000000390090D0030048E801F0B46D4C6D
:10412800A76A07F00307A16AC1F3055CE66A06F40B
:104138008076636CC3F3CC0306FB03F607EE906A44
:10414800B8EE677A012F60D0F7B1022F00F0A58092
:10415800614BB3FBFCF307EE903AF8EE677A5D4BE0
:104168001B6CC3F30803DFED5D6A27EE267A06EEC3
:10417800903AF8EE666A36EE877AF7EE006A37EE1E
:10418800267A67EE877A5BE0524B1B6813F0200FA4
:104198001FD0504A1368C3F3C103514DDD40B5FB2E
:1041A800FCF307EE903AF8EE677A136CC3F3080352
:1041B800DFED4A6A27EE267A06EE903AF8EE666A4E
:1041C80036EE877AF7EE006A37EE267A67EE877A58
:1041D80036E0434CB4FBFCF307EE903AF8EE677A0E
:1041E8003C4B1B6CC3F30803DFED3C6A27EE267AD1
:1041F80006EE903AF8EE666A36EE877AF7EE006ACF
:1042080037EE267A67EE877A1AE03349B1FBFCF37A
:1042180007EE903AF8EE677A2E4B1B6CC3F308034F
:10422800DFED2E6A27EE267A06EE903AF8EE666AF9
:1042380036EE877AF7EE006A37EE267A67EE877AE7
:10424800244A136CC3F34623013307EE103AB8EE41
:10425800477AC7EE876AFCEEE66AC0ED006A136C1F
:10426800C3F30643013307EE103AB8EE477AC7EEB8
:10427800876AFCEEE66AC0ED016A136CC3F3066355
:10428800013307EE103AB8EE477AC7EE876AFCEEBC
:10429800E66AC0ED026AF0BC7047124AB2FBFCF352
:1042A80007EE903AF8EE677A0A4B1B6CC3F30803E3
:1042B800DFED0A6A27EE267A06EE903AF8EE666A8D
:1042C80036EE877AF7EE006A37EE267A67EE877A57
:1042D800B6E700BF0044025800093D00000000395D
:1042E8000090D0030048E80108B5FEF77BFE084BB4
:1042F8009B6903F470634FF4807292FAA2F2B2FAE7
:1043080082F2D340034AD35CD840034B186008BDFF
:1043180000440258506D00081001002010B40268D3
:104328005369916941F00801916101688A6942F015
:1043380010028A6101680A6822F001020A600168B5
:104348000C69294A22400A6101688A6822F44042BD
:104358008A6090F88120D2B2042A0DD013F0200F81
:104368000AD0D0F8842042F08002C0F88420016886
:104378008A6942F020028A6190F88120D2B2032A29
:104388000DD013F0400F0AD0D0F8842042F0040278
:10439800C0F8842001688A6942F040028A6113F4F7
:1043A800007F0AD0D0F8842042F00102C0F88420AF
:1043B80001688A6942F400728A6113F4807F0AD026
:1043C800D0F8843043F00803C0F884300268936959
:1043D80043F4807393610023A0F86230A0F86A3038
:1043E8005DF8044B704700BF94FCFFFFC36B5B098B
:1043F800C0680830C00803FB000070472DE9F04191
:1044080007460E4615469846069C3B685B6936EAA1
:1044180003030CBF01230023AB420BD1B4F1FF3FD0
:10442800F3D054B1FDF7F4FBA0EB0800A042ECD99F
:10443800032000E00020BDE8F0810320FBE7000036
:10444800002800F0978070B5044600238362056851
:104458004C4B4D4E9D4218BFB54214BF0126002655
:1044680007D0A3F574439D4203D0C3680F2B00F215
:1044780083802046FFF7BAFF26B1444B9D4201D006
:1044880008287BD83F4A404B9D4218BF954203D02D
:1044980003F580639D4201D1102871D894F88130CA
:1044A800002B54D0022384F881302268136823F04B
:1044B80001031360A369B3F1806F4ED0E369A26A68
:1044C8001343E26B1343E16822680B439360636B09
:1044D800626A1343A26B1343A2691343226913430D
:1044E80062691343226A134362681343E26C1343FD
:1044F800A2681343A26C1343A16D22680B43D360D7
:1045080063686BB92268936823F4C05343F400636B
:1045180093602268936823F4C06343F480639360D4
:104528002268136D23F001031365636813F4800F89
:1045380006D02268D36823F00043616D0B43D36033
:104548000020C4F88400012384F8813070BD84F809
:1045580080302046FCF736FFA4E76368B3F5800F88
:10456800ACD1A36B002BA9D12268136843F4805304
:104578001360A3E7012070470120E7E70120E5E782
:104588000120E3E70030014000380040003C0040D3
:104598002DE9F04182B090F88040012C00F038817C
:1045A8001D46174688460446012380F88030FDF7EB
:1045B8002FFB064694F88130DBB2012B2BD1032365
:1045C80084F881300023C4F88430C4F85C80A4F8EF
:1045D8006070A4F862706366A4F86830A4F86A3062
:1045E80063672367A368B3F5C02F19D02368596898
:1045F800894A0A4017435F602268136843F0010341
:1046080013606368B3F5800F10D0E3680F2B17D8D9
:10461800072B4ED8A7E0002384F880300220F8E06A
:104628002268136843F400631360DFE722681368A5
:1046380043F400731360E8E7FDB1B5F1FF3F17D10C
:10464800B4F8622092B2002A00F0C48023685A6944
:1046580012F0020FF0D0E26D12681A62E36D0433B3
:10466800E365B4F86230013B9BB2A4F86230E7E737
:10467800FDF7CEFA801BA842E2D32046FFF74EFE94
:10468800002384F88030D4F8843043F48073C4F86D
:104698008430012084F88100BBE0E26D12881A841E
:1046A800E36D0233E365B4F86230013B9BB2A4F8D2
:1046B8006230B4F862309BB2002B00F08B80236824
:1046C8005A6912F0020F14D0B4F8622092B2012A8B
:1046D800E3D9E26B002AE0D0E26D12681A62E36D5A
:1046E8000433E365B4F86230023B9BB2A4F862304D
:1046F800DFE73DB1B5F1FF3FDBD0FDF789FA801B5D
:10470800A842D6D32046FFF709FE002384F880305C
:10471800D4F8843043F48073C4F88430012084F8DA
:10472800810076E0B4F8622092B2012A0ED9E26BD9
:1047380062B1E26D12881A84E36D0233E365B4F85E
:104748006230023B9BB2A4F862300CE0E26D127852
:1047580083F82020E36D0133E365B4F86230013B50
:104768009BB2A4F86230B4F862309BB293B323686A
:104778005A6912F0020F14D0B4F8622092B2032AD8
:10478800D0D9E26B402ACDD9E26D12681A62E36D86
:104798000433E365B4F86230043B9BB2A4F862309A
:1047A800E1E73DB1B5F1FF3FDDD0FDF731FA801B00
:1047B800A842D8D32046FFF7B1FD002384F8803003
:1047C800D4F8843043F48073C4F88430012084F82A
:1047D80081001EE000953346002208212046FFF79D
:1047E8000DFE28B1D4F8843043F02003C4F8843097
:1047F8002046FFF793FD002384F88030012384F8D6
:104808008130D4F884300BB9002002E0012000E0A8
:10481800022002B0BDE8F0810000FFFF2DE9F0435F
:1048280083B00A9D90F88040012C00F0D3811F4688
:10483800914688460446012380F88030FDF7E8F960
:10484800064694F88130DBB2012B0BD06368B3F5D0
:10485800800F37D1A368002B34D194F88130DBB2B4
:10486800042B2FD194F88130DBB2042B02D005231E
:1048780084F881300023C4F88430C4F86490A4F824
:104888006A70A4F86870C4F85C80A4F86270A4F830
:1048980060702367636722685168A3F580330B4013
:1048A8001F4357602268136843F00103136063686D
:1048B800B3F5800F0DD0E3680F2B13D8072B00F248
:1048C80085800BE1002384F88030022003B0BDE826
:1048D800F0832268136843F400731360EBE7B5F1C3
:1048E800FF3F36D1B4F862309BB22BB9B4F86A30C6
:1048F8009BB2002B00F05081B4F862309BB283B1B8
:1049080023685A6912F0020F0BD0E26D12681A621E
:10491800E36D0433E365B4F86230013B9BB2A4F85D
:104928006230B4F86A309BB2002BD8D0236859693A
:1049380048F208021142D2D0626E1B6B1360636E9C
:1049480004336366B4F86A30013B9BB2A4F86A305A
:10495800C5E7FDF75DF9801BA842C3D32046FFF7E2
:10496800DDFC002384F88030D4F8843043F480736D
:10497800C4F88430012084F88100A7E7E26D12882A
:104988001A84E36D0233E365B4F86230013B9BB2ED
:10499800A4F86230B4F86A309BB2A3B123685A69AC
:1049A80012F4604F0FD05A6912F4004F37D0626E7C
:1049B8001B6B1360636E04336366B4F86A30023BA2
:1049C8009BB2A4F86A30B5F1FF3F35D1B4F8623034
:1049D8009BB22BB9B4F86A309BB2002B00F0DC8094
:1049E800B4F862309BB2002BD4D023685A6912F015
:1049F800020FCFD0B4F8622092B2012ABED9E26B7E
:104A0800002ABBD0E26D12681A62E36D0433E365D5
:104A1800B4F86230023B9BB2A4F86230BAE7626E27
:104A28001B8E1380636E02336366B4F86A30013BF1
:104A38009BB2A4F86A30C6E7FDF7EAF8801BA842E3
:104A4800C4D32046FFF76AFC002384F88030D4F8EA
:104A5800843043F48073C4F88430012084F88100E2
:104A680034E7B4F8622092B2012A0ED9E26B62B13F
:104A7800E26D12881A84E36D0233E365B4F862309C
:104A8800023B9BB2A4F862300CE0E26D127883F826
:104A98002020E36D0133E365B4F86230013B9BB23B
:104AA800A4F86230B4F86A309BB2A3B123685A699B
:104AB80012F4604F0FD05A6912F4004F36D0626E6C
:104AC8001B6B1360636E04336366B4F86A30043B8F
:104AD8009BB2A4F86A30B5F1FF3F48D1B4F8623010
:104AE8009BB223B9B4F86A309BB2002B54D0B4F807
:104AF80062309BB2002BD5D023685A6912F0020F9E
:104B0800D0D0B4F8622092B2032AAAD9E26B402A24
:104B1800A7D9E26D12681A62E36D0433E365B4F84D
:104B28006230043B9BB2A4F86230BBE75A6902F4D6
:104B3800C042B2F5005F0CD9626E1B8E1380636EA3
:104B480002336366B4F86A30023B9BB2A4F86A3059
:104B5800C1E7626E93F830301370636E0133636699
:104B6800B4F86A30013B9BB2A4F86A30B3E7FDF7AA
:104B78004FF8801BA842B1D32046FFF7CFFB002394
:104B880084F88030D4F8843043F48073C4F88430D7
:104B9800012084F8810099E6009533460022082117
:104BA8002046FFF72BFC28B1D4F8843043F02003CB
:104BB800C4F884302046FFF7B1FB002384F8803026
:104BC800012384F88130D4F884300BB900207DE6C5
:104BD80001207BE6022079E62DE9F04387B0044600
:104BE8000168826A83680069034360690343E06976
:104BF800034313430868874A02401A430A6022683D
:104C0800536823F44053E1680B435360A269216859
:104C1800814B994201D0236A1A43A36AB3F1005F1A
:104C28002FD088687D4B034013438B602268D36A7A
:104C380023F00F03616A0B43D3622368784A9342D7
:104C480024D0784A93425ED0774A934275D0774A07
:104C5800934200F08C80764A934200F0A280754A15
:104C6800934200F0B880744A934200F0F580734A8A
:104C7800934200F00881684A934200F01B81802526
:104C880031E1E36A206B03431A43CAE76C4A526D69
:104C980002F03802282A2AD8DFE812F02401290075
:104CA8002900290029002900290029002B002900B2
:104CB8002900290029002900290029002D002900A0
:104CC8002900290029002900290029002F0029008E
:104CD800290029002900290029002900310029007C
:104CE80029002900290029002900290033008025EE
:104CF800F9E00425F7E04025F5E00825F3E0102564
:104D0800F1E02025EFE04E4A526D02F00702052A35
:104D180007D8DFE812F0360108000A000C000E0080
:104D280010008025DFE00425DDE04025DBE00825D4
:104D3800D9E01025D7E02025D5E0414A526D02F090
:104D48000702052A07D8DFE812F01E0108000A004A
:104D58000C000E0010008025C5E00425C3E04025A6
:104D6800C1E00825BFE01025BDE02025BBE0344A9E
:104D7800526D02F00702052A07D8DFE812F0060193
:104D880008000A000C000E0010008025ABE0042586
:104D9800A9E04025A7E00825A5E01025A3E02025E7
:104DA800A1E0274A526D02F00702052A07D8DFE87A
:104DB80012F0EE0008000A000C000E00100080251A
:104DC80091E004258FE040258DE008258BE0102533
:104DD80089E0202587E01A4A526D02F03802282A15
:104DE80016D8DFE802F0D6151515151515152F1567
:104DF8001515151515153115151515151515331521
:104E0800151515151515351515151515151537001D
:104E1800802568E0F369FFCF000C0058FFF4FF110C
:104E2800001001400044004000480040004C004091
:104E3800005000400014014000780040007C004011
:104E48000044025804254EE040254CE008254AE07D
:104E5800102548E0202546E09B4A526D02F00702E3
:104E6800052A04D8DFE802F0970507090B0D80250D
:104E780039E0042537E0402535E0082533E01025E2
:104E880031E020252FE0904A526D02F00702052AF2
:104E980004D8DFE802F0820507090B0D802522E01F
:104EA800042520E040251EE008251CE010251AE016
:104EB800202518E002F50E32926D02F00702052A4D
:104EC80004D8DFE802F06C0507090B0D80250AE01D
:104ED800042508E0402506E0082504E0102502E046
:104EE800202500E00125794A93425AD0E269B2F5BB
:104EF800004F00F09181402D00F2FB82DFE815F0B1
:104F08005A026C02F902F9027E02F902F902F90268
:104F1800A602F902F902F902F902F902F902F90204
:104F2800D002F902F902F902F902F902F902F902CA
:104F3800F902F902F902F902F902F902F902F90291
:104F4800E002F902F902F902F902F902F902F9029A
:104F5800F902F902F902F902F902F902F902F90271
:104F6800F902F902F902F902F902F902F902F90261
:104F7800F902F902F902F902F902F902F902F90251
:104F880092020025AFE70025ADE70025ABE7002535
:104F9800A9E70125A7E70025A5E70025A3E702253E
:104FA800A1E7082D36D007D9202D3FD0402D2CD091
:104FB800102D0AD001206CE1022D08D0042DF9D162
:104FC80003A8FEF7C5FF049B04E0414B05E0FEF78C
:104FD800A9FF0346002B00F08482666806EB4602B0
:104FE8009A4200F28082B3EB063F00F27E82082DDF
:104FF80000F095801FD9202D00F0F580402D6FD04E
:10500800102D00F0D280012054E06846FFF786F8A2
:10501800019BDFE72C4B1B6813F0200F09D02A4BAC
:105028001868C0F3C1002B4BC340D3E74FF40043CB
:10503800D3E7284BD1E7022D20D0042DE3D103A8D4
:10504800FEF786FF0025626A234B33F812200023FF
:1050580004982946FBF73CF90F0247EA1067060255
:10506800626850082B4616EB000847F100094046D5
:105078004946FBF72DF9034628461BE0FEF752FF89
:105088000025626A144B33F8122000232946FBF7E7
:105098001FF90F0247EA10670602626850082B469C
:1050A80016EB000847F1000940464946FBF710F99E
:1050B80003462846A3F54071084A914200F2178238
:1050C8002268D360E5E000BF00440258000C005895
:1050D80000093D000090D003606D0008FFFC0F0040
:1050E8006846FFF71BF80025626AA44B33F81220C4
:1050F800002301982946FBF7EBF80F0247EA1067EF
:105108000602626850082B4616EB000847F10009B2
:1051180040464946FBF7DCF803462846CAE7984B61
:105128001B6813F0200F22D0954B1968C1F3C101F9
:105138000025626A914B33F8122000239148C84039
:105148002946FBF7C5F84FEA012949EA10694FEAF1
:105158000028700832462B4618EB000649F1000774
:1051680030463946FBF7B4F803462846A2E7626A98
:10517800824B33F81220002382480021FBF7A8F85D
:105188004FEA012949EA10694FEA0028700800250A
:1051980032462B4618EB000649F1000730463946DF
:1051A800FBF796F80346284684E7626A734B33F8A0
:1051B8001220002374480021FBF78AF84FEA0129DE
:1051C80049EA10694FEA00287008002532462B4644
:1051D80018EB000649F1000730463946FBF778F826
:1051E8000346284666E7626A644B33F812204FF498
:1051F8000043B3FBF2F34FF000094FEA03287708A6
:10520800002532462B4618EB070049F10001FBF751
:105218005FF8034628464DE7402D00F2C880DFE8D6
:1052280005F0213BC6C64CC6C6C672C6C6C6C6C6AB
:10523800C6C69CC6C6C6C6C6C6C6C6C6C6C6C6C630
:10524800C6C6B5C6C6C6C6C6C6C6C6C6C6C6C6C607
:10525800C6C6C6C6C6C6C6C6C6C6C6C6C6C6C6C6E6
:10526800C6C65F00FEF7B6F8626A444B33F81220F0
:10527800B0FBF2F063685A0802EB4002B2FBF3F2AB
:1052880092B2002022F00F03C2F342021A432368AD
:10529800DA6007B0BDE8F083FEF7B2F8626A374B10
:1052A80033F81220B0FBF2F063685A0802EB4002B0
:1052B800B2FBF3F292B20020E4E703A8FEF748FE3F
:1052C800626A2E4B33F81230049AB2FBF3F361682A
:1052D8004A0802EB4302B2FBF1F292B20020D1E796
:1052E8006846FEF71BFF626A244B33F81230019AB6
:1052F800B2FBF3F361684A0802EB4302B2FBF1F236
:1053080092B20020BEE71E4B1B6813F0200F14D08A
:105318001B4B1A68C2F3C1021A4BD340616A174A81
:1053280032F81120B3FBF2F361684A0802EB43023A
:10533800B2FBF1F292B20020A4E7626A0F4B33F895
:105348001220104BB3FBF2F361684A0802EB4302E8
:10535800B2FBF1F292B2002094E7626A074B33F88D
:105368001230094AB2FBF3F361684A0802EB4302C0
:10537800B2FBF1F292B2002084E700BF606D000832
:10538800004402580090D00300093D00626A5A4B5D
:1053980033F812304FF40042B2FBF3F361684A0865
:1053A80002EB4302B2FBF1F292B200206AE701205D
:1053B800002267E7FEF70EF8626A4F4B33F81230A7
:1053C800B0FBF3F3626803EB5203B3FBF2F322681A
:1053D8009BB2D36000205CE7FEF712F8626A464B86
:1053E80033F81230B0FBF3F3626803EB5203B3FBFC
:1053F800F2F322689BB2D36000204AE703A8FEF7C5
:10540800A7FD626A3C4B33F81220049BB3FBF2F30E
:10541800626803EB5203B3FBF2F322689BB2D360DA
:10542800002036E76846FEF779FE626A324B33F8A9
:105438001220019BB3FBF2F3626803EB5203B3FB48
:10544800F2F322689BB2D360002022E72B4A12684D
:1054580012F0200F14D0294A1168C1F3C101284A5B
:10546800CA40606A244931F81010B2FBF1F2616851
:1054780002EB5102B2FBF1F292B2DA60002008E7C7
:10548800616A1D4A32F811101D4AB2FBF1F26168D7
:1054980002EB5102B2FBF1F292B2DA600020F8E6B8
:1054A800616A154A32F81110164AB2FBF1F26168C6
:1054B80002EB5102B2FBF1F292B2DA600020E8E6A8
:1054C800616A0D4A32F811104FF40042B2FBF1F252
:1054D800616802EB5102B2FBF1F292B2DA6000208D
:1054E800D7E60020D5E60120D3E60120D1E6012049
:1054F800CFE60120CDE600BF606D000800440258E9
:105508000090D00300093D00436B13F0010F06D053
:105518000268536823F40033816B0B435360436B79
:1055280013F0020F06D00268536823F48033C16B6E
:105538000B435360436B13F0040F06D002685368A3
:1055480023F48023016C0B435360436B13F0080F63
:1055580006D00268536823F40043416C0B43536040
:10556800436B13F0100F06D00268936823F480533E
:10557800816C0B439360436B13F0200F06D00268D5
:10558800936823F40053C16C0B439360436B13F08F
:10559800400F0AD00268536823F48013016D0B434F
:1055A8005360036DB3F5801F0BD0436B13F0800F6E
:1055B80006D00268536823F40023816D0B435360BF
:1055C80070470268536823F4C003416D0B4353606E
:1055D800EBE72DE9F04105460F4616469846069C2E
:1055E8002B68DB6937EA03030CBF01230023B342AE
:1055F8001DD1B4F1FF3FF3D02CB1FCF709FBA0EBB0
:105608000800A042ECD92A68136823F4D073136009
:105618002A68936823F001039360202385F8793082
:1056280085F87A30002385F87830032000E00020E0
:10563800BDE8F08130B583B004460023C367FCF7AA
:10564800E7FA054623681B6813F0080F0ED1236894
:105658001B6813F0040F17D1202384F8793084F8DD
:105668007A30002084F8780003B030BD6FF07E43B4
:105678000093034600224FF400112046FFF7A9FFCC
:105688000028E4D00320EFE76FF07E4300932B4619
:1056980000224FF480012046FFF79BFF0028DBD053
:1056A8000320E1E778B310B5044690F879300BB3DE
:1056B800242384F879302268136823F001031360E7
:1056C8002046FFF789FA012813D0636BBBB922681B
:1056D800536823F4904353602268936823F02A03A5
:1056E80093602268136843F0010313602046FFF7B4
:1056F800A1FF10BD80F87830FBF724FFD8E72046DB
:10570800FFF702FFE3E701207047000084B010B5FF
:10571800044603A880E80E00089B012B1ED1A36B4A
:1057280023F48033A363E268164B1340E360E36815
:1057380023F44013E3600F9B012B0AD0204600F0AE
:10574800D1FC069B012B14D00020BDE8104004B00A
:105758007047E36843F48013E360EFE7E36843F0DE
:105768004003E360204600F0BDFC4FF48033A363A0
:10577800E7E7A36843F00C03A360A36843F02003A2
:10578800A360E1E7BFFFBDFF836843F001038360C7
:1057980000207047836823F001038360002070476E
:1057A80008B5C36823F0C043C360012909D019B9FB
:1057B800C36843F08043C3603220FCF72FFA00200F
:1057C80008BDC36843F00053C360F5E784B0F8B57B
:1057D800044607A880E80E00A36B43F40013A363F4
:1057E800119F5FB9A36B23F40013A363236843F0ED
:1057F80040032360236843F0800323602546002389
:10580800C4F8003E04F50066D4F80038C4F800383F
:105818000C9B012B0BD1099B23B90021204600F0DA
:10582800A9F808E00121204600F0A4F803E00321CC
:10583800204600F09FF81021204600F075F8204619
:1058480000F086F80023336173614FF0FF32B261D4
:10585800F36108E04FF09040C2F8000900220A61A5
:10586800FF228A600133079999420BD905EB43124D
:1058780002F51061D2F800090028EBDB0020C2F81D
:105888000009EBE7002308E04FF0904CC2F800CB8A
:1058980000220261FF228260013399420DD905EB93
:1058A800431202F53060D2F800CBBCF1000FEBDBFD
:1058B8004FF0000CC2F800CBEAE7336923F4807399
:1058C80033610A9B012B1AD00022A2616FF080423B
:1058D80062611BB9A36943F01003A361A2690E4B6F
:1058E8001343A3610D9B1BB1A36943F00803A36194
:1058F800012F0CD00020BDE8F84004B07047074ADB
:105908003263316B064A0A433263326BDCE7A269C1
:10591800044B1343A361EDE700383C800004000208
:105928000300010804000040890141F020010161E1
:1059380000230133054A934205D8026912F0200F6B
:10594800F7D1002070470320704700BF400D0300C7
:105958001023036100230133054A934205D80269E5
:1059680012F0100FF7D1002070470320704700BFD6
:10597800400D0300D0F800381943C0F80018002083
:105988007047D0F8083800F5006013F0060F10D003
:10599800836803F00603022B0DD0836803F0060327
:1059A800062B0AD0836803F00603042B07D00020D7
:1059B800704700207047032070470320704702207B
:1059C8007047000030B44B78012B20D0D0F81C3839
:1059D8000D780122AA4043EA0243C0F81C380B782C
:1059E80000EB4310D0F8003B13F4004F0CD1D0F873
:1059F800002B8B68C3F30A03C97843EA8143134336
:105A0800134A1A43C0F8002B002030BC7047D0F866
:105A18001C280D78AB409BB21343C0F81C380A7899
:105A280000EB4210D0F8003913F4004FECD1D0F855
:105A380000498B68C3F30A03C97843EA814343EA00
:105A480082532343024A1A43C0F80029DCE700BF07
:105A58000080001030B44B78012B1DD0D0F83C48A2
:105A68000D78012202FA05F524EA0544C0F83C48FD
:105A7800D0F81C480D78AA4024EA0242C0F81C2835
:105A88000B7800EB4310D0F8003B23F40043C0F838
:105A9800003B002030BC7047D0F83C580A7803FA25
:105AA80002F292B225EA0202C0F83C28D0F81C287B
:105AB8000D78AB409BB222EA0303C0F81C380B7880
:105AC80000EB4310D0F8003923F40043C0F8003944
