:020000040800F2
:1000000000000220D90500082D1300082F13000856
:1000100031130008331300083513000800000000F6
:10002000000000000000000000000000371300087E
:1000300039130008000000003B1300083D130008BE
:1000400029060008290600082906000829060008D4
:1000500029060008290600082906000829060008C4
:1000600029060008290600082906000829060008B4
:1000700029060008290600082906000829060008A4
:100080002906000829060008290600082906000894
:100090002906000829060008290600082906000884
:1000A0002906000829060008290600082906000874
:1000B0002906000829060008290600082906000864
:1000C0002906000829060008290600082906000854
:1000D0002906000829060008290600082906000844
:1000E000290600082906000800000000290600086B
:1000F0002906000829060008290600082906000824
:100100002906000829060008290600082906000813
:100110002906000829060008290600082906000803
:1001200029060008290600082906000829060008F3
:1001300029060008290600082906000829060008E3
:1001400000000000000000000000000000000000AF
:1001500029060008290600082906000829060008C3
:1001600029060008290600082906000829060008B3
:100170002906000849130008290600082906000876
:100180002906000829060008290600082906000893
:100190002906000829060008290600082906000883
:1001A0002906000829060008290600082906000873
:1001B0002906000829060008290600082906000863
:1001C0002906000829060008290600082906000853
:1001D0002906000859130008290600082906000806
:1001E0002906000829060008290600082906000833
:1001F0002906000829060008290600082906000823
:100200002906000829060008290600082906000812
:100210002906000829060008290600082906000802
:100220002906000829060008290600080000000029
:100230002906000829060008000000002906000819
:1002400029060008290600082906000829060008D2
:1002500029060008290600082906000829060008C2
:1002600029060008290600082906000829060008B2
:1002700029060008290600082906000800000000D9
:100280002906000800000000290600080000000000
:0802900000000000290600082F
:1002980010B5054C237833B9044B13B10448AFF3B8
:1002A80000800123237010BDD4010020000000004D
:1002B8000467000808B5034B1BB103490348AFF3B3
:1002C800008008BD00000000D80100200467000875
:1002D80053B94AB9002908BF00281CBF4FF0FF31A5
:1002E8004FF0FF3000F072B9ADF1080C6DE904CEA3
:1002F80000F006F8DDF804E0DDE9022304B07047F9
:100308002DE9F047089E04468846002B4BD18A42C7
:10031800154667D9B2FA82F24AB1C2F1200701FA4A
:1003280002F320FA07F7954047EA030894404FEA9A
:10033800154E230CB8FBFEF71FFA85FC0EFB178839
:1003480043EA084307FB0CF1994209D9EB1807F176
:10035800FF3080F01B81994240F21881023F2B4404
:100368005B1AA4B2B3FBFEF00EFB103344EA03445D
:1003780000FB0CFCA44509D92C1900F1FF3380F0CF
:100388000781A44540F2048102382C4440EA074022
:10039800A4EB0C0400271EB1D4400023C6E9004397
:1003A8003946BDE8F0878B4209D9002E00F0EB8072
:1003B8000027C6E9000138463946BDE8F087B3FA98
:1003C80083F7002F47D18B4202D3824200F2FA8092
:1003D800841A61EB030301209846002EE0D0C6E999
:1003E8000048DDE702B9FFDEB2FA82F2002A40F0E7
:1003F8008F80491B4FEA154E1FFA85F80127B1FB7C
:10040800FEFC230C0EFB1C1143EA014308FB0CF114
:10041800994207D9EB180CF1FF3002D2994200F249
:10042800CD808446591AA3B2B1FBFEF00EFB10141E
:1004380043EA044408FB00F8A04507D92C1900F149
:10044800FF3302D2A04500F2B6801846A4EB080498
:1004580040EA0C409FE7C7F1200CBB4022FA0CFE93
:100468004EEA030E01FA07F420FA0CF521FA0CF310
:100478004FEA1E482543B3FBF8F92C0C08FB193347
:100488001FFA8EFA44EA034309FB0AF49C4202FA73
:1004980007F200FA07F10BD91EEB030309F1FF304D
:1004A80080F087809C4240F28480A9F1020973445D
:1004B8001B1BADB2B3FBF8F008FB103345EA03444D
:1004C80000FB0AFAA24508D91EEB040400F1FF3329
:1004D8006BD2A24569D90238744440EA0940A0FBAE
:1004E8000289A4EB0A044C45C2464B4654D351D06A
:1004F800002E69D0B1EB0A0564EB030404FA0CFC86
:10050800FD40FC404CEA0505C6E90054002747E7D2
:10051800C2F1200320FA03F7954001FA02F021FA0C
:1005280003F34FEA154E3843010CB3FBFEF71FFAED
:1005380085F80EFB173341EA034107FB08F38B42AA
:1005480004FA02F407D9691807F1FF3C2FD28B424D
:100558002DD9023F2944CB1A81B2B3FBFEF00EFB22
:10056800103341EA034100FB08F38B4207D96918AD
:1005780000F1FF3C17D28B4215D902382944C91A19
:1005880040EA07473BE73746304609E70746E7E6CC
:100598001846FBE64145ABD2B8EB020A69EB0E02FE
:1005A80001381346A4E76046E9E7184695E7674629
:1005B800D1E781467CE702382C4447E7ACF1020CCE
:1005C8002B442FE7384608E73746E9E6704700BF6F
:1005D800DFF834D0002103E00C4B5B584350043162
:1005E8000B480C4B42189A42F6D30B4A02E0002300
:1005F80042F8043B094B9A42F9D301F059F905F046
:1006080081FF00F00DFD70470000022038680008E7
:1006180000000020D4010020D40100204414002050
:10062800FEE700002DE9F0438DB0564BD3F8E020EB
:1006380042F01002C3F8E020D3F8E02002F01002E4
:100648000192019AD3F8E02042F00402C3F8E020B6
:10065800D3F8E02002F004020292029AD3F8E020D4
:1006680042F08002C3F8E020D3F8E02002F08002D4
:100678000392039AD3F8E02042F00102C3F8E02085
:10068800D3F8E02002F001020492049AD3F8E020A3
:1006980042F00202C3F8E020D3F8E02002F00202A0
:1006A8000592059AD3F8E02042F00802C3F8E0204A
:1006B800D3F8E03003F008030693069BDFF8D490E4
:1006C80001229021484601F0F5FA2F4E012210210F
:1006D800304601F0EFFA2D4F00224FF4E041384642
:1006E80001F0E8FA00224FF40041304601F0E2FA46
:1006F80001228121384601F0DDFADFF89C800122D1
:100708004021404601F0D6FA90230793012408942B
:10071800099403250A9507A9484601F0D5F9082345
:100728000793089409940A9507A9194801F0CCF988
:1007380010230793089409940A9507A9304601F0F5
:10074800C3F947F281030793089409940A9507A906
:10075800384601F0B9F94FF4004307930894002391
:1007680009930A9507A9304601F0AEF9402307938B
:10077800089409940A9507A9404601F0A5F90DB017
:10078800BDE8F0830044025800000258000C0258EB
:100798000008025800100258000402582DE9F041E0
:1007A800B74BD3F8180200233F2B05D8B54A0021D0
:1007B800D15401339BB2F7E700233F2B05D8C15C26
:1007C800B04AD15401339BB2F7E7AE4B5A781B7845
:1007D80043EA022340F2AA72934233D040F26B629A
:1007E800934200F09F8040F26C62934200F02881AF
:1007F80040F26D62934200F0C9814022A149A048AD
:1008080005F020FE4FF480519F4801F058FABDE8EA
:10081800F0819C48C45C5A1C825C42EA04229B48D2
:1008280020F81120013102333F2BF2DD974B1B8852
:100838001BB9964B5B88002BDFD0954B91225A80D1
:1008480000250DE004230021EEE7013243F1000307
:100858004DF237600021994208BF9042F5D2013528
:10086800032DCADC6B1C8A4C2380884F37F815305F
:10087800A380884E00224FF40041304601F01AFA56
:100888004FF4807305222146834803F045FD012279
:100898004FF40041304601F00DFA2B1D37F81330A4
:1008A800A380DFF8048200221021404601F002FAFA
:1008B800102305222146794803F02EFD012210213C
:1008C800404601F0F7F905F1080337F81330A38023
:1008D800A8F5006800220821404601F0EBF9102332
:1008E800052221466E4803F017FD012208214046E3
:1008F80001F0E0F905F10C0337F81330A38000226A
:100908001021304601F0D6F910230522214665480A
:1009180003F002FD01221021304601F0CBF900223C
:10092800002395E75A4BA0225A80042300210AE0AD
:100938005448C45C5A1C825C42EA0422534820F89A
:100948001120013102333F2BF2DD504B1B88002B65
:1009580074D14E4B5B88002B3FF44FAF00250AE063
:10096800013243F100034DF237600021994208BF7C
:100978009042F5D20135032D3FF73FAF6B1C444C35
:100988002380424F37F81530A380424E00224FF49F
:100998000041304601F08EF94FF48073052221465C
:1009A8003D4803F0B9FC01224FF40041304601F004
:1009B80081F92B1D37F81330A380DFF8EC80002273
:1009C8001021404601F076F91023052221463348CC
:1009D80003F0A2FC01221021404601F06BF905F159
:1009E800080337F81330A380A8F50068002208210F
:1009F800404601F05FF9102305222146284803F0FC
:100A08008BFC01220821404601F054F905F10C0342
:100A180037F81330A38000221021304601F04AF93C
:100A28001023052221461F4803F076FC01221021DD
:100A3800304601F03FF90022002394E700259AE7A9
:100A4800134BA1225A80042300210AE00D48C45CFC
:100A58005A1C825C42EA04220C4820F81120013119
:100A680002333F2BF2DD094B1B88002B40F08C80B2
:100A7800064B5B88002B3FF4C0AE002521E000BF89
:100A8800F805002048020020000C0258F001002060
:100A98000000002000000258B0030020C404002019
:100AA800940200205805002000100258013243F13A
:100AB80000034DF237600021994208BF9042F5D2F9
:100AC8000135032D3FF799AE6B1C774C2380774F88
:100AD80037F81530A380764E00224FF40041304697
:100AE80001F0E8F84FF4807305222146714803F0BD
:100AF80013FC01224FF40041304601F0DBF82B1DB6
:100B080037F81330A380DFF8C08100221021404657
:100B180001F0D0F8102305222146674803F0FCFBBA
:100B280001221021404601F0C5F805F1080337F805
:100B38001330A380A8F5006800220821404601F080
:100B4800B9F81023052221465C4803F0E5FB012291
:100B58000821404601F0AEF805F10C0337F81330D0
:100B6800A38000221021304601F0A4F810230522AA
:100B78002146534803F0D0FB01221021304601F0F2
:100B880099F80022002394E700259AE7464BA22211
:100B98005A80042300210AE04A48C45C5A1C825C3B
:100BA80042EA0422414820F81120013102333F2B48
:100BB800F2DD3E4B1B88002B74D13C4B5B88002B2D
:100BC8003FF41BAE00250AE0013243F100034DF269
:100BD80037600021994208BF9042F5D20135032DB4
:100BE8003FF70BAE6B1C304C2380304F37F8153075
:100BF800A3802F4E00224FF40041304601F05AF8EE
:100C08004FF48073052221462A4803F085FB012210
:100C18004FF40041304601F04DF82B1D37F81330E2
:100C2800A380DFF8A48000221021404601F042F89A
:100C3800102305222146204803F06EFB01221021D3
:100C4800404601F037F805F1080337F81330A38060
:100C5800A8F5006800220821404601F02BF810236F
:100C680005222146154803F057FB0122082140467A
:100C780001F020F805F10C0337F81330A3800022A7
:100C88001021304601F016F81023052221460C48A1
:100C980003F042FB01221021304601F00BF800223C
:100CA800002394E700259AE700000020F0010020C7
:100CB80000000258B0030020C40400209402002061
:100CC800580500204802002000100258FEE70000E6
:100CD80008B50E480E4B03604FF4E1334360002320
:100CE8008360C36003610C2242618361C361036254
:100CF80043628362C3620363436304F0B9F900B9D2
:100D080008BD40F2C5210348FFF7E0FF4404002076
:100D1800001001404467000808B51648164B0360E8
:100D28004FF480034360002383600F22C260036195
:100D380043614FF0806282614FF00052C2610362EA
:100D4800436283620722C2624FF080424263836338
:100D5800C363036443648364C36403654365836551
:100D680003F032FA00B908BD4FF409710348FFF7E0
:100D7800ADFF00BF5805002000300140446700085F
:100D880008B51648164B03604FF4800343600023F0
:100D980083600F22C260036143614FF08062826109
:100DA8004FF00052C2610362436283620722C2624B
:100DB8004FF0804242638363C36303644364836484
:100DC800C36403654365836503F0FEF900B908BD94
:100DD80040F246210348FFF779FF00BF9402002044
:100DE800003800404467000808B51648164B0360F1
:100DF8004FF480034360002383600F22C2600361C5
:100E080043614FF0806282614FF04052C2610362D9
:100E1800436283620722C2624FF080424263836367
:100E2800C363036443648364C36403654365836580
:100E380003F0CAF900B908BD4FF41A710348FFF767
:100E480045FF00BFB0030020003C00404467000895
:100E580008B51648164B03604FF48003436000231F
:100E680083600F22C260036143614FF08062826138
:100E78004FF04052C2610362436283620722C2623A
:100E88004FF0804242638363C363036443648364B3
:100E9800C36403654365836503F096F900B908BD2B
:100EA80040F28A210348FFF711FF00BFC404002065
:100EB800003401404467000808B51648164B036023
:100EC8004FF480034360002383600F22C2600361F4
:100ED80043614FF0806282614FF04052C261036209
:100EE800436283620722C2624FF080424263836397
:100EF800C363036443648364C364036543658365B0
:100F080003F062F900B908BD4FF42B710348FFF7ED
:100F1800DDFE00BF1C0300200014005844670008D1
:100F280000B5CDB0394BDA6822F00402DA6000224D
:100F380001929A6942F440429A619B6903F44043E2
:100F48000193019B314B9B6913F4005FFAD0012395
:100F580039934FF480333A93022342934393449353
:100F68003022459246931022479248930C23499386
:100F780000234A934B9339A801F034FC002835D15B
:100F88003F2331930323329300233393082334936D
:100F98004023359336934FF4806237923893022179
:100FA80031A801F0C9FF30BB194B029300231993F4
:100FB8001A9320934FF4801223922D9302A802F0E3
:100FC800E1F9E8B9134B1868134BA3FB003080090B
:100FD80000F04EFD042000F061FD002211464FF0A4
:100FE800FF3000F005FD4DB05DF804FB4FF4EC71E7
:100FF8000A48FFF76BFE4FF4F5710848FFF766FEE5
:101008004FF4FC710548FFF761FE00BF0048025825
:1010180001700400E0000020D34D6210446700080E
:1010280070B500F09DFCFFF77BFFFFF7FBFAFFF7B9
:101038004FFEFFF771FEFFF7A3FEFFF7D5FEFFF7A0
:1010480007FFFFF739FF00F08BF900252C4619E060
:1010580001242CE00125184E00224FF400413046AF
:1010680000F028FE4FF4807305221449144803F059
:1010780053F901224FF40041304600F01BFE642072
:1010880000F090FC4FF480410E4800F018FE0B4B26
:101098001D80A0225A8004EB840202EB8202910098
:1010A80099800022DA801A81312CD1DC0134032D99
:1010B800D0DC0135CFE700BF000002580000002057
:1010C800B0030020000C025800B583B01E4BD3F8C3
:1010D800F42042F00202C3F8F420D3F8F43003F00D
:1010E80002030193019B032000F070FC00221146CB
:1010F8006FF00B0000F07CFC002211466FF00A0034
:1011080000F076FC002211466FF0090000F070FC38
:10111800002211466FF0040000F06AFC002211461C
:101128006FF0030000F064FC002211466FF001002C
:1011380000F05EFC002211464FF0FF3000F058FC32
:1011480003B05DF804FB00BF0044025870B58AB0D4
:101158000368544A93420DD0534A934226D0534AC7
:10116800934249D0524A934263D0524A93427CD028
:101178000AB070BD504BD3F8F02042F48052C3F847
:10118800F020D3F8F03003F480530093009BE02361
:10119800059302230693002307930323089305234B
:1011A800099305A9454800F08FFCE1E7424BD3F8C5
:1011B800E82042F48042C3F8E820D3F8E83003F48A
:1011C80080430193019B062305930226069600247B
:1011D800079408940525099505A9394800F074FC79
:1011E8004FF480630593069607940894099505A91A
:1011F800344800F069FCBBE72F4BD3F8E82042F4F1
:101208000042C3F8E820D3F8E83003F4004302931F
:10121800029B4FF4E05305930223069300230793A0
:10122800032308930623099305A9254800F04CFCDD
:101238009EE7214BD3F8F02042F40052C3F8F02087
:10124800D3F8F03003F400530393039B642305930E
:101258000223069300230793032308930523099386
:1012680005A9194800F030FC82E7134BD3F8F420A5
:1012780042F02002C3F8F420D3F8F43003F020033E
:101288000493049B382305930223069300230793B2
:10129800032308930823099305A90A4800F014FCBE
:1012A80066E700BF0030014000380040003C0040C5
:1012B800003401400014005800440258000002584D
:1012C8000008025800040258001002580268124B25
:1012D8009A4200D0704700B587B0104BD3F8F02081
:1012E80042F01002C3F8F020D3F8F03003F01003F6
:1012F8000093009B4FF4C0630193022302930023E1
:101308000393032304930723059301A9044800F0DA
:10131800DBFB07B05DF804FB0010014000440258F5
:10132800000002587047FEE7FEE7FEE7FEE7704759
:101338007047704708B500F023FB00F0C0FB08BDFC
:1013480008B5024800F0A8FD08BD00BF400A00200B
:1013580008B5024800F0A0FD08BD00BF400E0020FF
:1013680038B5144C01221449204604F0BFFB134D34
:101378002946204604F0D1FB1149204605F078F8AB
:10138800204604F0D1FB01F025FA0E4C00220E494C
:10139800204604F0ABFB2946204604F0BEFB0B496F
:1013A800204605F065F8204604F0BEFB01F012FA6D
:1013B80038BD00BF1C080020A80000203401002010
:1013C8000C000020F8050020C40000201C000020AC
:1013D8000268164B9A4200D0704710B586B04FF499
:1013E800C05301930223029300240394032304931C
:1013F8000A23059301A90E4800F066FB0D4BD3F8AC
:10140800D82042F00062C3F8D820D3F8D83003F0CF
:1014180000630093009B22462146652000F0E8FA0D
:10142800652000F017FB06B010BD00BF00000840A3
:10143800000002580044025808B500F56F71D0F852
:10144800FC0304F08AFB08BD08B5C1EBC102930098
:101458000344D3F80422D0F8FC0304F0ABFB08BD26
:1014680008B5C1EBC102930003445A6CD0F8FC03E1
:1014780004F0D5FB08BD08B5D0F8FC0304F058FC0F
:1014880008BD10B50446C3684BB10121D4F8FC036C
:1014980004F03CFCD4F8FC0304F019FC10BD002156
:1014A800F4E7000010B50446D0F8FC0304F031FC62
:1014B8002268D2F8003E43F00103C2F8003E236AD6
:1014C80023B1034A136943F00603136110BD00BF3B
:1014D80000ED00E008B5D0F8FC0304F023FC08BDDB
:1014E80008B5D0F8FC0304F033FC08BD08B5D0F803
:1014F800FC0304F02BFC08BD08B5D0F8FC0304F08D
:1015080029FC08BD08B5D0F8FC0304F025FC08BD8B
:1015180038B50446037823B12378012B2FD0002057
:1015280038BD3048C0F8FC43C4F820022E4B036095
:10153800092343600222C260002303614361826180
:10154800C361036283624362C362036300F01BFCEE
:1015580078B9244D8021284601F013F94022002152
:10156800284601F0EAF880220121284601F0E5F832
:10157800D2E74FF4A7711D48FFF7A8FBE9E71C481D
:10158800C0F8FC43C4F820021A4B036009234360E7
:101598000222C2600023036143618261C361036266
:1015A800836201224262C3620363436300F0EBFB80
:1015B80088B90F4C4FF40071204601F0E2F8802200
:1015C8000021204601F0B9F84FF4BA7201212046F3
:1015D80001F0B3F8A3E740F269110448FFF776FB7E
:1015E800E7E700BF400E0020000008407C670008C5
:1015F800400A00200000044008B5D0F8200200F09E
:1016080040FC18B1022803D0022008BD0020FCE7E6
:101618000120FAE710B51C4613462246D0F82002EE
:1016280000F078FF18B1022803D0022010BD002076
:10163800FCE70120FAE708B5D0F8200200F09EFF89
:1016480018B1022803D0022008BD0020FCE70120C1
:10165800FAE708B5D0F8200201F011F818B102280D
:1016680003D0022008BD0020FCE70120FAE708B5F6
:10167800D0F8200201F036F818B1022803D0022071
:1016880008BD0020FCE70120FAE7D0F8203211F06D
:10169800800F08D101F07F01C1EBC1018A0013441A
:1016A80093F8FA01704701F07F01C1EBC1018A008C
:1016B800134493F83A00704708B5D0F8200200F0B8
:1016C80017FF18B1022803D0022008BD0020FCE74C
:1016D8000120FAE708B5D0F8200200F0A7FF18B1FA
:1016E800022803D0022008BD0020FCE70120FAE709
:1016F80008B5D0F8200200F06CFF18B1022803D01A
:10170800022008BD0020FCE70120FAE77047704777
:101718007047704708B5FFF741F8002008BD08B5C5
:10172800FFF73CF8002008BD12230B8000487047E3
:101738007C00002004230B800048704790000020A4
:1017480012230B80004870479400002004230B806C
:10175800004870479000002008B50A4628B105499E
:10176800054804F076FD034808BD0249024804F024
:1017780070FDF8E740120020B867000810B5044C67
:101788000A462146034804F064FD204610BD00BF08
:1017980040120020D867000808B50A4628B1054954
:1017A800054804F056FD034808BD0249024804F004
:1017B80050FDF8E740120020EC67000808B50A461B
:1017C80028B10549054804F044FD034808BD02490D
:1017D800024804F03EFDF8E740120020FC670008CC
:1017E80008B50A4628B10549054804F032FD034802
:1017F80008BD0249024804F02CFDF8E74012002019
:101808001068000808B50A4628B10549054804F0DB
:1018180020FD034808BD0249024804F01AFDF8E714
:1018280040120020B867000810B5044C0A4621464B
:10183800034804F00EFD204610BD00BF40120020F2
:10184800D867000808B50A4628B10549054804F0D4
:1018580000FD034808BD0249024804F0FAFCF8E715
:1018680040120020EC67000808B50A4628B105496F
:10187800054804F0EEFC034808BD0249024804F09C
:10188800E8FCF8E740120020FC67000808B50A46A3
:1018980028B10549054804F0DCFC034808BD0249A5
:1018A800024804F0D6FCF8E740120020106800084F
:1018B80010B41549D1F8883043F47003C1F8883062
:1018C800124B1A6842F001021A6000221A611C6861
:1018D8000F48204018609A61DA611A629A62DA62E7
:1018E8001A635A639A63DA631A645A64186820F4AC
:1018F800802018601A66074B01221A604FF00063B7
:101908008B605DF8044B704700ED00E0004402581E
:101918007FEDF6EA0881005110B504460E4B1878A1
:101928004FF47A73B3FBF0F30C4A1068B0FBF3F092
:1019380000F09EF868B90F2C01D901200AE00022B6
:1019480021464FF0FF3000F053F8034B5C60002055
:1019580000E0012010BD00BFE8000020E0000020EA
:1019680010B5032000F032F80020FFF7D5FF10B1C2
:101978000124204610BD0446FFF7A6FBF9E7000046
:10198800034B1B78034A11680B441360704700BF70
:10199800E800002034020020014B1868704700BF9F
:1019A8003402002038B50446FFF7F6FF0546B4F1C7
:1019B800FF3F02D0044B1B781C44FFF7EDFF401B90
:1019C800A042FAD338BD00BFE80000200649CB6822
:1019D80023F4E0631B041B0C000200F4E0600343E3
:1019E800024A1A43CA60704700ED00E00000FA0599
:1019F80030B4154BDB68C3F30223C3F10704042C8E
:101A080028BF04241D1D062D14D9033B4FF0FF35B4
:101A180005FA04F421EA0401994005FA03F322EADD
:101A280003031943002807DB0901C9B2074B1954FE
:101A380030BC70470023E9E700F00F000901C9B284
:101A4800034B1954F4E700BF00ED00E000E400E0A8
:101A580014ED00E0002807DB00F01F024009012315
:101A68009340024A42F82030704700BF00E100E08E
:101A78000138B0F1807F0AD2064B5860064AF0213F
:101A880082F823100020986007221A60704701200E
:101A9800704700BF10E000E000ED00E0042805D02A
:101AA800054A136823F0040313607047024A136859
:101AB80043F004031360704710E000E0704708B576
:101AC800FFF7FCFF08BD000000230F2B00F2E980A0
:101AD800F0B482B03DE0092200E00022B2403A436F
:101AE8000234704E46F824206F4A1468EA4302EA2A
:101AF80004064F6817F4803F01D045EA04066A4C93
:101B08002660666802EA06044F6817F4003F01D0B1
:101B180045EA0604644E74604FF0B044246802EA53
:101B280004064F6817F4801F01D045EA04064FF0F9
:101B3800B0442660646822404E6816F4001F01D045
:101B480045EA04024FF0B044626001330F2B00F203
:101B5800A58001229A400C6804EA0205AA42F4D141
:101B68004C68122C18BF022C10D1DE08083650F829
:101B780026C003F00704A7000F24BC402CEA040C7D
:101B88000C69BC4044EA0C0440F8264004685F0035
:101B98000326BE40F64306EA040C4C6804F003042E
:101BA800BC4044EA0C0404604C6804F1FF3C112C6E
:101BB80018BFBCF1010F01D9122C11D1846806EAB3
:101BC800040CCC68BC4044EA0C048460446824EAF1
:101BD800020C4C68C4F300129A4042EA0C024260BC
:101BE800C26816408A68BA403243C2604A6812F036
:101BF800805FAAD02D4AD2F8F44044F00204C2F81B
:101C0800F440D2F8F42002F002020192019A9C08F2
:101C1800A61C244A52F8267003F0030296000F22ED
:101C2800B24027EA0207224A90423FF456AF02F533
:101C38008062904222D002F58062904220D002F564
:101C4800806290421ED002F5806290421CD002F55C
:101C5800806290421AD002F58062904218D002F554
:101C68008062904216D002F58062904214D002F54C
:101C7800806290423FF42FAF0A222FE701222DE71E
:101C880002222BE7032229E7042227E7052225E77A
:101C9800062223E7072221E708221FE702B0F0BC4B
:101CA80070477047000400588000005800440258EC
:101CB800000002580AB9418370470183704743699D
:101CC8005940416170472DE9F04383B007460D46FE
:101CD800D0F80080CA00521A93000344DE6C1A6DD3
:101CE800B61A1B6C9E4200D91E4616F1030902D48F
:101CF8004FEAA90919E009F10309F9E716F10309FF
:101D08002FD44FEAA909EB005B1B9C003C44616C93
:101D18003B7C0093B3B2EAB2404603F09FFD636C8C
:101D280033446364236D33442365414608EB45130C
:101D380003F510639B699BB24B4515D9EA00521B0A
:101D480093003B441A6DDB6C9A420DD263B19E1A24
:101D5800C5EBC50293003B441B6C9E42CED91E4680
:101D6800CCE709F10309CCE7002E03DD002003B01E
:101D7800BDE8F0830123AB40D1F8345825EA0305C8
:101D8800C1F83458F2E7002879D0F0B58BB0044692
:101D9800032380F8B933FFF71BFB206803F0E0F951
:101DA800254655F8107B6E460FCD0FC60FCD0FC6D2
:101DB80095E8030086E80300231D0ECB384603F0A0
:101DC8008BF90021206803F0D1F9002210E0D1003E
:101DD800891A8B002344012183F8391083F83820AD
:101DE800DA87002183F83B1019645964D9640132F9
:101DF8000E2AECD9002218E0D100891A8B0023445E
:101E0800002183F8F91183F8F821DA8783F8FB11A8
:101E1800C3F80012C3F80412C3F80C12236802F1C5
:101E2800400003EB8003596001320E2AE4D92546AD
:101E380055F8107B6E460FCD0FC60FCD0FC695E82F
:101E4800030086E80300231D0ECB384603F0A4F9EF
:101E5800012384F8B933A36A012B08D0636A012BE4
:101E680009D0206803F0A5FD00200BB0F0BD204686
:101E780000F08CFCF2E7204600F09CFCF1E7012022
:101E8800704710B50446006803F087FD206803F02A
:101E980061F9002010BD00002DE9F04704460568EF
:101EA800284603F0C1FD08B1BDE8F0870646206862
:101EB80003F08BFD0028F7D0206803F086FD10F0B2
:101EC800020F02D0236802225A61206803F07DFDC8
:101ED80010F4002F40F090803746206803F075FD1D
:101EE80010F4802F40F01581206803F06EFD002863
:101EF800C0F28181206803F068FD10F4006F09D0FA
:101F0800D5F8083813F0010F40F08E8123684FF49C
:101F180000625A61206803F058FD10F0006F14D079
:101F280023684FF000625A6194F8EC33002B40F0BC
:101F38007F81012184F8EC1323685B6DC3F383036D
:101F4800C4F8F033204600F043FC206803F03DFD60
:101F580010F4805F40F07081206803F036FD10F4C3
:101F6800005F40F0B881206803F02FFD10F0100FDB
:101F780014D02268936923F0100393612E6A06F047
:101F88000F08C6F34343022B00F05082062B00F0E3
:101F98006E822268936943F010039361206803F00E
:101FA80014FD10F0080F40F07682206803F00DFD54
:101FB80010F4801F40F07682206803F006FD10F4CC
:101FC800001F40F07882206803F0FFFC10F0804F7B
:101FD80040F07A82206803F0F8FC10F0040F3FF418
:101FE80063AF23685D6815F0040F40F075822268BE
:101FF80053682B43536057E7206803F0EAFC804698
:10200800374648E0D5F8082B12F4004F61D04FF45A
:1020180000429A605DE0F900C91B8A002244D2F8A8
:1020280000121B69C3F31203C91AC2F81012D2F8BE
:102038000012D2F804320B44C2F804324CE0002FEC
:1020480051D1C7EBC70293002344D3F80C32002BBD
:1020580049D104F56F720121206803F005FD42E0C3
:102068002046FFF7E9F905EB47130822C3F8082BC8
:1020780019F0100F04D005EB47131022C3F8082BF2
:1020880019F0200F04D005EB47132022C3F8082BC2
:1020980001374FEA5808B8F1000F3FF41EAF18F0A7
:1020A800010FF5D05FFA87FA5146206803F0A1FCCA
:1020B800814610F0010F16D005EB471303F5306386
:1020C80001229A60296CBC4A914202D92269012AEC
:1020D80098D02269012A9ED051462046FFF7B4F9CC
:1020E8002369012BABD019F0080FC1D02A6CB24B71
:1020F8009A42B5D92369012BB2D1D5F8083B13F41C
:10210800004FADD005EB47134FF40042C3F8082B3E
:10211800A6E7206803F065FC804637462EE0FA0003
:10212800D21B93002344196C5A6C0A445A6446E043
:1021380019F0080F04D005EB47130822C3F8082943
:1021480019F0100F04D005EB47131022C3F8082923
:1021580019F0400F04D005EB47134022C3F80829B3
:1021680019F0020F04D005EB47130222C3F808291F
:1021780019F0800F3AD101374FEA5808B8F1000F2B
:102188003FF4B2AE18F0010FF5D05FFA87FA514666
:10219800206803F037FC814610F0010FC8D00122F7
:1021A80002FA07F0D5F8343823EA0003C5F83438C2
:1021B80005EB4713C3F8082923699342AFD051466A
:1021C8002046FFF74DF92369012BB1D1002FAFD17C
:1021D800C7EBC70293002344DB6C002BA8D104F59E
:1021E8006F720121206803F03FFCA1E739462046C1
:1021F800FFF769FDBFE7D5F8043823F00103C5F8F8
:10220800043894F8EC33012B07D02046FFF762F925
:1022180023684FF000425A616CE6002184F8EC1301
:10222800204600F0D5FAF3E72046FFF73BF96DE6C4
:102238002046FFF737F988E6A94605F50068D8F87B
:10224800043023F00103C8F804301021206803F09B
:1022580051F807E009EB4613FF22C3F80829C3F831
:10226800082B01366368B342F4D84FF0FF33C8F83F
:102278001830D8F81C3043F00113C8F81C30236B11
:10228800E3B1D8F8843043F00B03C8F88430D8F8A9
:10229800443043F00B03C8F84430D5F8003823F431
:1022A800FE63C5F8003804F56F72217C206803F0DE
:1022B800DBFB23684FF480525A614DE6D8F814309E
:1022C80043F00B03C8F81430D8F8103043F00B0370
:1022D800C8F81030E1E7206803F0AAFB2268D36849
:1022E80023F47053D360206803F031F888B90023D1
:1022F800E3604FF4007363612268D36843F41053BA
:10230800D3602046FFF7BDF823684FF400525A61A6
:1023180029E60323E3604023636100F005FF274BB0
:102328000344274A934205D82268D36843F470537C
:10233800D360E6E7234B0344234A934205D8226837
:10234800D36843F46053D360DBE7204B0344204A4F
:10235800934205D82268D36843F45053D360D0E73A
:102368001C4B03441C4A934205D82268D36843F4A3
:102378004053D360C5E7194B0344194A934205D823
:102388002268D36843F43053D360BAE7154B03444B
:10239800154A934205D82268D36843F42053D36082
:1023A800AFE7124B0344124A934223D82268D368FA
:1023B80043F41053D360A4E70931544F405327FF27
:1023C800FF340C00401E1BFF3F420F0000DC0BFFD8
:1023D8007F4F1200808CF9FE1FD6130060B6E5FE11
:1023E8005FE3160000D3CEFE3F771B00C05BB3FE51
:1023F800BF9121003A4B03443A4A934205D82268D8
:10240800D36843F40053D3607BE7374B0344374A20
:10241800934205D82268D36843F4E053D36070E749
:102428002268D36843F4C053D3606AE747F6F07371
:102438001E423FF4AEAD36094FEAC80AAAEB0803BC
:102448004FEA8309A144C6F30A02D9F804122846C0
:1024580003F018FAC6F30A06D9F804323344C9F867
:102468000432D9F810321E44C9F8106291E50822E6
:1024780004F56F71284603F005FAC6F30A164FEA09
:10248800C803A3EB08018A002244D2F810321E4484
:10249800C2F810627DE52046FEF7EDFF23680822AA
:1024A8005A6182E5F9B22046FFF720F823684FF415
:1024B80080125A6180E5F9B22046FFF711F82368C7
:1024C8004FF400125A617EE52046FFF715F823689D
:1024D8004FF080425A617DE52046FFF713F886E504
:1024E80000CA91FE1F753800E05459FEDF9C410078
:1024F80090F8B833012B0BD010B50446012380F8AF
:10250800B833006803F039FA002084F8B80310BD26
:102518000220704770B54DB2002D22DB01F07F0616
:10252800C6EBC606B40004F5FC74044401F07F0150
:102538002170ED0F6570A260E37005B1E180022B98
:1025480017D090F8B833012B16D00546012380F830
:10255800B8332146006802F01BFF002085F8B80355
:1025680070BD01F07F06C6EBC606B40038340444DB
:10257800DCE700232371E4E70220F1E710B54AB253
:10258800002A1CDB01F07F04C4EBC404A30003F59C
:10259800FC73034401F07F011970D20F5A7090F850
:1025A800B823012A13D00446012280F8B82319461B
:1025B800006802F035FF002084F8B80310BD01F070
:1025C8007F04C4EBC404A30038330344E2E70220C9
:1025D800F4E770B501F07F06F500A91B8C0004F53F
:1025E800FC740119AD1BAC000444C4F80422C4F8FF
:1025F8000C320023C4F8103284F8F93184F8F861F9
:102608000369012B06D066B1DAB2006802F048FF10
:10261800002070BDC6EBC605AC000444C4F808220F
:10262800F1E7DAB2006803F06BF8F1E770B501F092
:102638007F06F500A91B8C0038340119AD1BAC00CE
:1026480004446264E36400232365012384F8393079
:1026580084F838600369012B06D05EB1DAB20068ED
:1026680002F01EFF002070BDC6EBC605AC00044496
:10267800A264F2E7DAB2006803F042F8F2E738B58C
:102688004AB2002A1DDBC1EBC104A30003F5FC73A9
:10269800034401249C7001F07F041C70D20F5A700F
:1026A80090F8B823012A1BD00546012280F8B823E8
:1026B8001946006803F0FAF85CB1002085F8B80301
:1026C80038BD01F07F04C4EBC404A30038330344CD
:1026D800DFE705F56F72297C286803F0C5F9ECE798
:1026E8000220EDE710B54AB2002A1CDBC1EBC10499
:1026F800A30003F5FC73034400249C7001F07F01E0
:102708001970D20F5A7090F8B823012A13D00446D2
:10271800012280F8B8231946006803F0F9F8002070
:1027280084F8B80310BD01F07F04C4EBC404A3000F
:1027380038330344E0E70220F4E730B40468606A01
:1027480029B10D46A36A00EB134000230CE040EAD0
:102758000240A06212E003F1400104EB81014968E4
:1027680000EB11400133DBB2691E8B42F3DB40EA18
:10277800024005F13F0104EB81014860002030BCB4
:1027880070470368596200207047000002460368DA
:102798000121C0F8F413002082F8EC039A6942F092
:1027A80000629A61596D024A0A435A65704700BF30
:1027B8000300001003680122C0F8F8239A6B42F462
:1027C80000329A639A6B42F480229A630020704721
:1027D80070470000024AD36843F08073D3607047A3
:1027E8000048025838B50446036813F0010F2AD090
:1027F800AC4B1B6903F03803102B1BD0A94B1B698A
:1028080003F03803182B0FD06368B3F5803F44D02A
:10281800002B58D1A34B1A6822F480321A601A6828
:1028280022F480221A603DE09E4B9B6A03F003036A
:10283800022BE9D19B4B1B6813F4003F03D063685C
:10284800002B00F08382236813F0020F00F09480BD
:10285800944B1B6913F0380F60D0924B1B6903F03F
:102868003803182B55D0E368002B00F0BD808D4944
:102878000A6822F0190213430B60FFF78DF805462A
:10288800884B1B6813F0040F40F09E80FFF784F814
:10289800401B0228F4D903205DE2824A136843F4FE
:1028A8008033136063682BB3FFF776F805467D4BDA
:1028B8001B6813F4003FC6D1FFF76EF8401B64286D
:1028C800F5D9032047E2B3F5A02F09D0754B1A6854
:1028D80022F480321A601A6822F480221A60E1E732
:1028E800704B1A6842F480221A601A6842F48032E7
:1028F8001A60D7E7FFF750F805466A4B1B6813F4D0
:10290800003FA0D0FFF748F8401B6428F5D9032002
:1029180021E2644B9B6A13F0030FA4D1614B1B683F
:1029280013F0040F03D0E368002B00F011825D4A16
:10293800136823F01903E1680B431360FFF72CF8C1
:102948000546584B1B6813F0040F06D1FFF724F80F
:10295800401B0228F5D90320FDE15248436823F4BF
:102968007C3321694FF47C3292FAA2F2B2FA82F2F5
:1029780001FA02F213434360236813F0100F66D084
:10298800484B1B6903F03803082B47D0454B1B699C
:1029980003F03803182B3BD0E369002B00F0848048
:1029A800404A136843F080031360FEF7F5FF0546BD
:1029B8003C4B1B6813F4807F64D1FEF7EDFF401B8E
:1029C8000228F5D90320C6E13648436823F47C334E
:1029D80021694FF47C3292FAA2F2B2FA82F201FA39
:1029E80002F213434360C7E72E4A136823F001033A
:1029F8001360FEF7D1FF05462A4B1B6813F0040F3E
:102A0800BAD0FEF7C9FF401B0228F5D90320A2E17E
:102A1800244B9B6A03F00303012BBDD1214B1B6898
:102A280013F4807F04D0E369802B01D0012092E168
:102A38001C48436823F0F843216A4FF0F84292FAA1
:102A4800A2F2B2FA82F201FA02F213434360236857
:102A580013F0080F50D06369002B39D0114A536F17
:102A680043F001035367FEF797FF05460D4B5B6F75
:102A780013F0020F40D1FEF78FFF401B0228F5D953
:102A8800032068E10748436823F0F843216A4FF0C0
:102A9800F84292FAA2F2B2FA82F201FA02F213436F
:102AA8004360D4E700440258AC4A136823F080031B
:102AB8001360FEF771FF0546A84B1B6813F4807F6F
:102AC800C5D0FEF769FF401B0228F5D9032042E173
:102AD800A24A536F23F001035367FEF75DFF0546D3
:102AE8009E4B5B6F13F0020F06D0FEF755FF401B9D
:102AF8000228F5D903202EE1236813F0200F29D0EE
:102B0800A3699BB1954A136843F480531360FEF799
:102B180043FF0546914B1B6813F4005F1AD1FEF77B
:102B28003BFF401B0228F5D9032014E18B4A1368A8
:102B380023F480531360FEF72FFF0546874B1B686D
:102B480013F4005F06D0FEF727FF401B0228F5D9D3
:102B5800032000E1236813F0040F21D1636A002BDE
:102B680000F0F8807D4A126902F03802182A00F055
:102B7800F380022B75D0794A136823F080731360B1
:102B8800FEF70AFF0446754B1B6813F0007F00F040
:102B9800DB80FEF701FF001B0228F4D90320DAE0EE
:102BA8006F4A136843F480731360FEF7F5FE054619
:102BB8006B4B1B6813F4807F06D1FEF7EDFE401BBC
:102BC8006428F5D90320C6E0A368012B0AD00BBB03
:102BD800624B1A6F22F001021A671A6F22F0040280
:102BE8001A6704E05D4A136F43F001031367A36893
:102BF80033B3FEF7D1FE0546584B1B6F13F0020F97
:102C0800ACD1FEF7C9FE401B41F288339842F3D994
:102C18000320A0E0052B09D0504B1A6F22F00102C7
:102C28001A671A6F22F004021A67E0E74B4B1A6F13
:102C380042F004021A671A6F42F001021A67D6E7D7
:102C4800FEF7AAFE0546454B1B6F13F0020F85D011
:102C5800FEF7A2FE401B41F288339842F3D90320C5
:102C680079E03E4A136823F080731360FEF794FE00
:102C780005463A4B1B6813F0007F06D0FEF78CFE22
:102C8800401B0228F5D9032065E0344B996A354A80
:102C98000A40A16AE06A41EA00110A439A62226B7B
:102CA800013AC2F30802616B0139490289B20A4349
:102CB800A16B0139090401F4FE010A43E16B0139F2
:102CC800090601F0FE410A431A63596B264A0A4075
:102CD800A06C4FF6F87191FAA1F1B1FA81F100FAFE
:102CE80001F10A435A63DA6A22F00C02216C0A43A2
:102CF800DA62DA6A22F00202616C0A43DA62DA6A9C
:102D080042F48032DA62DA6A42F40032DA62DA6A6B
:102D180042F48022DA62DA6A42F00102DA621A6860
:102D280042F080721A60FEF737FE04460B4B1B68B0
:102D380013F0007F06D1FEF72FFE001B0228F5D9FD
:102D4800032008E0002006E0002004E0012002E063
:102D5800012000E0002038BD0120FCE700440258B3
:102D6800004802580CFCFFFF0700FFFF6D4B1B6972
:102D780003F03803102B00F0D180182B0FD00BB1C3
:102D880069487047674B1B6813F0200F00F0C88034
:102D9800644B1B68C3F3C1036448D840704770B4E0
:102DA800604DAC6A04F00304AE6AC6F30516EB6A1C
:102DB80003F001036D6BC5F3CC0503FB05F307EEC8
:102DC800903AF8EE677A012C60D0F4B1022C00F04A
:102DD8008980554BB3FBF6F307EE103AB8EE477A05
:102DE800504B1B6BC3F30803DFED516A67EEA67AFD
:102DF80006EE903AF8EE666A76EEA77AF7EE006A83
:102E080077EEA67A27EE277A5BE0464B1B6813F02D
:102E1800200F1FD0434A1368C3F3C1034348D84067
:102E2800B0FBF6F307EE103AB8EE477A136BC3F32C
:102E38000803DFED3F6A67EEA67A06EE903AF8EEF1
:102E4800666A76EEA77AF7EE006A77EEA67A27EE3C
:102E5800277A36E03548B0FBF6F307EE103AB8EEBD
:102E6800477A304B1B6BC3F30803DFED316A67EE1B
:102E7800A67A06EE903AF8EE666A76EEA77AF7EE4C
:102E8800006A77EEA67A27EE277A1AE02649B1FB80
:102E9800F6F307EE103AB8EE477A224B1B6BC3F3F2
:102EA8000803DFED236A67EEA67A06EE903AF8EE9D
:102EB800666A76EEA77AF7EE006A77EEA67A27EECC
:102EC800277A184B1B6BC3F34623013307EE903A5E
:102ED800F8EE676AC7EE267AFCEEE77A17EE900AF4
:102EE80070BC7047134AB2FBF6F307EE103AB8EE1F
:102EF800477A0C4B1B6BC3F30803DFED0D6A67EED3
:102F0800A67A06EE903AF8EE666A76EEA77AF7EEBB
:102F1800006A77EEA67A27EE277AD2E70548704747
:102F2800024870470044025800093D000090D00351
:102F3800000000390048E801774B1B6803F00703DD
:102F48008B420CD2744A136823F007030B431360B7
:102F5800136803F007038B4201D00120704770B556
:102F6800036813F0020F06D06C4A936923F00F032D
:102F7800C468234393610D460446036813F0010FA8
:102F880072D0664A936923F4706381680B43936136
:102F98004368022B0AD0032B2BD0012B30D05F4A79
:102FA800126812F0040F06D10120B2E0126812F480
:102FB800003F00F0AF8059490A6922F00702134325
:102FC8000B61FEF7E9FC06466368022B1FD0032B52
:102FD8002CD0012B39D0514B1B6913F0380F43D03B
:102FE800FEF7DAFC801B41F288339842F3D90320BC
:102FF8008FE04A4A126812F0007FDCD1012088E095
:10300800464A126812F4807FD5D1012081E0434BF3
:103018001B6903F03803102B26D0FEF7BDFC801B7C
:1030280041F288339842F2D9032072E03B4B1B6986
:1030380003F03803182B17D0FEF7AEFC801B41F2C3
:1030480088339842F2D9032063E0344B1B6903F0BC
:103058003803082B08D0FEF79FFC801B41F2883309
:103068009842F2D9032054E02B4B1B6803F0070366
:10307800AB420CD9284A136823F007032B4313608B
:10308800136803F00703AB4201D0012041E0236835
:1030980013F0040F06D0214A936923F070032169C5
:1030A8000B439361236813F0080F06D01B4AD369BA
:1030B80023F0700361690B43D361236813F0100F89
:1030C80006D0164AD36923F4E063A1690B43D361A0
:1030D800236813F0200F06D0104A136A23F07003F8
:1030E800E1690B431362FFF741FE0C4B9B6903F444
:1030F80070634FF4807292FAA2F2B2FA82F2D3406D
:10310800074AD35CD840074B18600020FEF704FC40
:10311800002070BD0120FCE7002000520044025846
:103128001C670008E000002008B500F0A1FF084B6C
:103138009B6903F00F03012292FAA2F2B2FA82F21B
:10314800D340044AD35CD840034B186008BD00BF85
:10315800004402581C670008E400002008B5FFF787
:10316800E3FF074BDB6903F07003102292FAA2F227
:10317800B2FA82F2D340034AD35CD84008BD00BFFC
:10318800004402581C67000808B5FFF7CDFF074B3D
:10319800DB6903F4E0634FF4807292FAA2F2B2FAA8
:1031A80082F2D340024AD35CD84008BD004402589A
:1031B8001C670008384B9B6A03F00303032B69D094
:1031C80070B50E460446344A136823F080631360D2
:1031D800FEF7E2FB0546304B1B6813F0006F06D084
:1031E800FEF7DAFB401B0228F5D9032070BD2A4AF6
:1031F800936A23F47C33216843EA0133936263685A
:10320800013BC3F30803A1680139490289B20B43A2
:10321800E1680139090401F4FE010B432169013910
:10322800090601F0FE410B439363D36A23F0C00300
:1032380061690B43D362D36A23F02003A1690B436E
:10324800D362BEB9D36A43F40023D362124A136827
:1032580043F080631360FEF79FFB04460E4B1B6828
:1032680013F0006F14D1FEF797FB001B0228F5D965
:103278000320BBE7012E05D0074AD36A43F40013A5
:10328800D362E3E7044AD36A43F48013D362DDE7E9
:103298000020ABE70120704700440258384B9B6A76
:1032A80003F00303032B69D070B50E460446344A75
:1032B800136823F080531360FEF76EFB0546304B0E
:1032C8001B6813F0005F06D0FEF766FB401B022860
:1032D800F5D9032070BD2A4A936A23F07C732168CC
:1032E80043EA015393626368013BC3F30803A1688F
:1032F8000139490289B20B43E1680139090401F433
:10330800FE010B4321690139090601F0FE410B4317
:103318001364D36A23F4406361690B43D362D36AAD
:1033280023F40073A1690B43D362BEB9D36A43F493
:103338008003D362124A136843F080531360FEF788
:103348002BFB04460E4B1B6813F0005F14D1FEF7ED
:1033580023FB001B0228F5D90320BBE7012E05D06B
:10336800074AD36A43F08073D362E3E7044AD36A17
:1033780043F40003D362DDE70020ABE70120704788
:1033880000440258F8B50446036813F0006F2BD0C8
:10339800436EB3F5801F18D007D9B3F5001F1DD0B1
:1033A800B3F5401F2ED1002606E05BBBA14AD36AC5
:1033B80043F40033D36200269E4A136D23F440136E
:1033C800616E0B431365002510E002210430FFF7FE
:1033D800F1FE0646002EEFD0354607E002212430E4
:1033E800FFF75CFF0646F5E700252E46236813F431
:1033F800807F28D0636D042B22D8DFE803F0061401
:103408001A0B0B0001252E46F0E78A4AD36A43F4CB
:103418000033D362AEB9874A136D23F00703616D99
:103428000B4313650FE00021201DFFF7C3FE06467E
:10343800F0E7002104F12400FFF730FF0646E9E732
:1034480001263543EDB2236813F4007F14D0A36D31
:10345800802B35D008D823B3402B0AD10021201D5A
:10346800FFF7A8FE064621E0C02B1FD0B3F5807FEA
:103478001CD001263543EDB2236813F4806F2FD09A
:10348800D4F8A430B3F5800F4FD020D8002B3CD00F
:10349800B3F5001F21D10021201DFFF78BFE064642
:1034A80038E0644AD36A43F40033D362002EE1D192
:1034B800604A136D23F4E073A16D0B431365DBE7DA
:1034C800002104F12400FFF7E9FE0646EEE7B3F514
:1034D800C00F1FD0B3F5000F1CD001263543EDB245
:1034E800236813F4006F30D0D4F8A830B3F1007F0C
:1034F80048D021D8002B35D0B3F1807F22D10021CC
:10350800201DFFF757FE064631E04A4AD36A43F4C6
:103518000033D362002EE1D1464A936D23F4600351
:10352800D4F8A4100B439365DAE7002104F12400D2
:10353800FFF7B4FE0646EDE7B3F1407F17D0B3F1CD
:10354800806F14D001263543EDB2236813F0007F55
:1035580023D0A36C102B34D01BD9202B40D0302B78
:1035680034D017E0334AD36A43F40033D362002ED1
:10357800E9D1304A936D23F0E063D4F8A8100B43E7
:103588009365E2E7002104F12400FFF787FE064671
:10359800EDE7DBB101263543EDB2236813F4805F14
:1035A8002DD0E36DB3F5005F55D01FD8002B43D065
:1035B800B3F5805F20D10021201DFFF7FBFD0646F3
:1035C8003FE01C4AD36A43F40033D362002EE2D1B1
:1035D800184AD36C23F03003A16C0B43D364DCE7A7
:1035E8000221201DFFF7E6FD0646EFE7B3F5405F31
:1035F80027D0B3F5804F24D001263543EDB2236898
:1036080013F4005F3AD0236EB3F5003F53D029D8A6
:103618003BB1B3F5803F2ED10121201DFFF7CAFD34
:1036280006464EBB034A136D23F4E023216E0B4379
:10363800136523E000440258944AD36A43F40033E4
:10364800D362002ED9D1914A136D23F4E043E16D82
:103658000B431365D3E7002104F12400FFF71EFE96
:103668000646EEE7B3F5802FDBD0B3F5A02FD8D010
:10367800B3F5403FD5D001263543EDB2236813F4A6
:10368800804F2BD0D4F8AC30B3F1005F40D019D8BC
:103698003BB1B3F1805F1ED10121201DFFF78AFDE8
:1036A8000646CEB9794A936D23F0E043D4F8AC10BE
:1036B8000B43936512E0012104F12400FFF7EEFDAE
:1036C8000646AEE7B3F1804FEBD0B3F1A04FE8D098
:1036D800B3F1405FE5D001263543EDB2236813F41A
:1036E800004F0AD0E36EB3F1805F18D0B3F1005FEA
:1036F80024D0CBB101263543EDB2236813F0807F87
:1037080039D0636C032B33D8DFE803F0231E2C2356
:10371800012104F12400FFF7C1FD0646C1E75B4A19
:10372800D36A43F40033D362002EE4D1574A136DB1
:1037380023F04053E16E0B431365DEE70121201DA2
:10374800FFF738FD0646EFE7504AD36A43F40033E3
:10375800D36276B94D4AD36C23F00303616C0B43F3
:10376800D36408E00221201DFFF724FD0646F0E798
:1037780001263543EDB2236813F4800F1FD1236867
:1037880013F0010F00F0A080A36F282B00F299809E
:10379800DFE803F087979797979797978297979778
:1037A80097979797909797979797979787979797B8
:1037B8009797979787979797979797978700344AF8
:1037C800136843F480731360FEF7E6F80746304B3E
:1037D8001B6813F4807F05D1FEF7DEF8C01B642850
:1037E800F5D90326002E4DD1284B1B6FD4F8B020F5
:1037F800534013F4407F0CD0244B1A6F22F44072CC
:10380800196F41F480311967196F21F480311967F4
:103818001A67D4F8B030B3F5807F15D07EBBD4F8E2
:10382800B03003F44072B2F5407F1ED0174A1369D6
:1038380023F47C53136115490B6FD4F8B020C2F3FD
:103848000B0213430B679AE7FEF7A6F807460F4BE0
:103858001B6F13F0020FE1D1FEF79EF8C01B41F277
:1038680088339842F3D90326D8E70848026922F436
:103878007C52084901EA131313430361DBE735431C
:10388800EDB27CE73543EDB279E700BF004402585A
:1038980000480258CFFFFF000121201DFFF78AFCD6
:1038A80006467EB9AC4A536D23F03803A16F0B432B
:1038B800536509E0012104F12400FFF7EFFC0646F7
:1038C800EFE701263543EDB2236813F0020F1FD04E
:1038D800636F052B19D8DFE803F0080311080808FF
:1038E8000121201DFFF766FC06467EB99A4A536DF2
:1038F80023F00703616F0B43536509E0012104F1CD
:103908002400FFF7CBFC0646EFE701263543EDB26E
:10391800236813F0040F21D0D4F89030052B1AD85F
:10392800DFE803F00803120808080121201DFFF74B
:1039380041FC064686B9884A936D23F00703D4F8FC
:1039480090100B43936509E0012104F12400FFF76F
:10395800A5FC0646EEE701263543EDB2236813F0D1
:10396800200F24D0D4F88C30B3F1005F3CD012D8AB
:103978003BB1B3F1805F17D10021201DFFF71AFC7E
:10398800064696B9744A536D23F0E043D4F88C1078
:103998000B4353650BE0B3F1804FF2D0B3F1A04F66
:1039A800EFD0B3F1405FECD001263543EDB2236888
:1039B80013F0400F2BD0D4F89830B3F5006F44D0F3
:1039C80019D83BB1B3F5806F1ED10021201DFFF738
:1039D800F1FB0646CEB9604A936D23F4E053D4F860
:1039E80098100B43936512E0022104F12400FFF7BD
:1039F80055FC0646C5E7B3F5805FEBD0B3F5A05F8D
:103A0800E8D0B3F5406FE5D001263543EDB2236821
:103A180013F0800F2CD0D4F89C30B3F5804F00F011
:103A28008B8019D83BB1B3F5005F1ED10021201D52
:103A3800FFF7C0FB0646CEB9474A936D23F46043AF
:103A4800D4F89C100B43936512E0022104F1240082
:103A5800FFF724FC0646BDE7B3F5004FEBD0B3F5FE
:103A6800204FE8D0B3F5C04FE5D001263543EDB27D
:103A7800236813F0080F0AD0D4F88030B3F5805FBC
:103A880061D035494A6D22F4405213434B6523688F
:103A980013F0100F0AD0D4F89430B3F5807F5DD0BE
:103AA8002D498A6D22F4407213438B65236813F401
:103AB800002F0CD0D4F8A030B3F5803F66D0B3F512
:103AC800003F58D0002B51D001263543EDB2236872
:103AD80013F4802F0DD0D4F88430B3F5001F6CD0C8
:103AE800B3F5401F5ED0B3F5801F56D0012635438D
:103AF800EDB2236813F4803F08D0E36C002B63D049
:103B0800B3F5803F6FD001263543EDB2236813F03B
:103B1800005F6ED1236813F4003F77D0E36FB3F5ED
:103B2800807F00F0AA806CD9B3F5007F00F0AA80EE
:103B3800B3F5407F67D1A5E0022104F12400FFF727
:103B4800ADFB064677E7022104F12400FFF7A6FB48
:103B58000543EDB29BE700BF00440258022104F17F
:103B68002400FFF79BFB0543EDB29FE70021201DD2
:103B7800FFF720FB0646002EA7D14B4A936D23F48E
:103B88004033D4F8A0100B439365A0E7022104F159
:103B98002400FFF783FB0646EDE7434AD36A43F464
:103BA8000033D362002EA2D13F4A536D23F4401351
:103BB800D4F884100B4353659BE7012104F12400DA
:103BC800FFF76CFB0646EDE7374AD36A43F4003348
:103BD800D362002E98D1344AD36C23F48033E16C3D
:103BE8000B43D36492E70221201DFFF7E3FA064650
:103BF800EFE7022104F12400FFF750FB0543EDB283
:103C080088E7002B3ED001263543EDB2236813F434
:103C1800801F06D0244A136D23F00043216F0B4305
:103C28001365236813F0805F07D01F4A136923F4D4
:103C38008043D4F8B4100B431361236813F4001FB6
:103C480006D0194A136D23F08073A16E0B431365D8
:103C5800236813F0804F09D0134B1A6922F40042ED
:103C68001A611A69D4F8B8100A431A612368002B3C
:103C780012DB05B101252846F8BD0B4AD36A43F487
:103C88000033D362002EBFD1074A536D23F440732B
:103C9800E16F0B435365B9E7034AD36C23F04053F4
:103CA800216D0B43D364E4E70044025808B5FFF7DD
:103CB8003BFA074B1B6A03F07003102292FAA2F238
:103CC800B2FA82F2D340034AD35CD84008BD00BFA1
:103CD800004402581C670008F0B46D4CA76A07F04E
:103CE8000307A16AC1F3053CE66A06F01006E36B18
:103CF800C3F3CC0306FB03F607EE906AB8EE677AC7
:103D0800012F60D0F7B1022F00F0A580614BB3FB03
:103D1800FCF307EE903AF8EE677A5D4B9B6BC3F3C2
:103D28000803DFED5D6A27EE267A06EE903AF8EE94
:103D3800666A36EE877AF7EE006A37EE267A67EE1D
:103D4800877A5BE0524B1B6813F0200F1FD0504A54
:103D58001368C3F3C103514DDD40B5FBFCF307EE17
:103D6800903AF8EE677A936BC3F30803DFED4A6A7B
:103D780027EE267A06EE903AF8EE666A36EE877AED
:103D8800F7EE006A37EE267A67EE877A36E0434C1C
:103D9800B4FBFCF307EE903AF8EE677A3C4B9B6B6A
:103DA800C3F30803DFED3C6A27EE267A06EE903A65
:103DB800F8EE666A36EE877AF7EE006A37EE267A0C
:103DC80067EE877A1AE03349B1FBFCF307EE903AC5
:103DD800F8EE677A2E4B9B6BC3F30803DFED2E6A70
:103DE80027EE267A06EE903AF8EE666A36EE877A7D
:103DF800F7EE006A37EE267A67EE877A244A936BE5
:103E0800C3F34623013307EE103AB8EE477AC7EEFC
:103E1800876AFCEEE66AC0ED006A936BC3F306435B
:103E2800013307EE103AB8EE477AC7EE876AFCEE20
:103E3800E66AC0ED016A936BC3F30663013307EECC
:103E4800103AB8EE477AC7EE876AFCEEE66AC0ED2C
:103E5800026AF0BC7047124AB2FBFCF307EE903AD4
:103E6800F8EE677A0A4B9B6BC3F30803DFED0A6A27
:103E780027EE267A06EE903AF8EE666A36EE877AEC
:103E8800F7EE006A37EE267A67EE877AB6E700BF64
:103E98000044025800093D00000000390090D0039A
:103EA8000048E801F0B46D4CA76A07F00307A16A5F
:103EB800C1F3055CE66A06F48076636CC3F3CC0351
:103EC80006FB03F607EE906AB8EE677A012F60D01A
:103ED800F7B1022F00F0A580614BB3FBFCF307EEAE
:103EE800903AF8EE677A5D4B1B6CC3F30803DFED7D
:103EF8005D6A27EE267A06EE903AF8EE666A36EEA6
:103F0800877AF7EE006A37EE267A67EE877A5BE003
:103F1800524B1B6813F0200F1FD0504A1368C3F38D
:103F2800C103514DDD40B5FBFCF307EE903AF8EEC6
:103F3800677A136CC3F30803DFED4A6A27EE267A23
:103F480006EE903AF8EE666A36EE877AF7EE006A81
:103F580037EE267A67EE877A36E0434CB4FBFCF3FB
:103F680007EE903AF8EE677A3C4B1B6CC3F30803F4
:103F7800DFED3C6A27EE267A06EE903AF8EE666A9E
:103F880036EE877AF7EE006A37EE267A67EE877A9A
:103F98001AE03349B1FBFCF307EE903AF8EE677A82
:103FA8002E4B1B6CC3F30803DFED2E6A27EE267A2F
:103FB80006EE903AF8EE666A36EE877AF7EE006A11
:103FC80037EE267A67EE877A244A136CC3F34623C2
:103FD800013307EE103AB8EE477AC7EE876AFCEE6F
:103FE800E66AC0ED006A136CC3F30643013307EEBB
:103FF800103AB8EE477AC7EE876AFCEEE66AC0ED7B
:10400800016A136CC3F30663013307EE103AB8EE86
:10401800477AC7EE876AFCEEE66AC0ED026AF0BC32
:104028007047124AB2FBFCF307EE903AF8EE677A53
:104038000A4B1B6CC3F30803DFED0A6A27EE267AE6
:1040480006EE903AF8EE666A36EE877AF7EE006A80
:1040580037EE267A67EE877AB6E700BF0044025843
:1040680000093D00000000390090D0030048E80135
:1040780008B5FEF77BFE084B9B6903F470634FF4A9
:10408800807292FAA2F2B2FA82F2D340034AD35C67
:10409800D840034B186008BD004402581C6700084C
:1040A800E000002010B402685369916941F00801EA
:1040B800916101688A6942F010028A6101680A68A0
:1040C80022F001020A6001680C69294A22400A614B
:1040D80001688A6822F440428A6090F88120D2B24E
:1040E800042A0DD013F0200F0AD0D0F8842042F013
:1040F8008002C0F8842001688A6942F020028A613F
:1041080090F88120D2B2032A0DD013F0400F0AD0C4
:10411800D0F8842042F00402C0F8842001688A693B
:1041280042F040028A6113F4007F0AD0D0F884205C
:1041380042F00102C0F8842001688A6942F40072E2
:104148008A6113F4807F0AD0D0F8843043F00803E2
:10415800C0F884300268936943F480739361002344
:10416800A0F86230A0F86A305DF8044B704700BFD1
:1041780094FCFFFFC36B5B09C0680830C00803FBF1
:10418800000070472DE9F04107460E46154698464F
:10419800069C3B685B6936EA03030CBF01230023D6
:1041A800AB420BD1B4F1FF3FF3D054B1FDF7F4FBB0
:1041B800A0EB0800A042ECD9032000E00020BDE8F5
:1041C800F0810320FBE70000002800F0978070B51D
:1041D80004460023836205684C4B4D4E9D4218BF30
:1041E800B54214BF0126002607D0A3F574439D42AB
:1041F80003D0C3680F2B00F283802046FFF7BAFF75
:1042080026B1444B9D4201D008287BD83F4A404BF9
:104218009D4218BF954203D003F580639D4201D1AA
:10422800102871D894F88130002B54D0022384F8D8
:1042380081302268136823F001031360A369B3F186
:10424800806F4ED0E369A26A1343E26B1343E168BF
:1042580022680B439360636B626A1343A26B134338
:10426800A26913432269134362691343226A134301
:1042780062681343E26C1343A2681343A26C1343AE
:10428800A16D22680B43D36063686BB92268936899
:1042980023F4C05343F4006393602268936823F4C3
:1042A800C06343F4806393602268136D23F00103B5
:1042B8001365636813F4800F06D02268D36823F06F
:1042C8000043616D0B43D3600020C4F884000123D0
:1042D80084F8813070BD84F880302046FCF736FFC2
:1042E800A4E76368B3F5800FACD1A36B002BA9D109
:1042F8002268136843F480531360A3E701207047D2
:104308000120E7E70120E5E70120E3E7003001406D
:1043180000380040003C00402DE9F04182B090F8A0
:104328008040012C00F038811D4617468846044617
:10433800012380F88030FDF72FFB064694F8813082
:10434800DBB2012B2BD1032384F881300023C4F87E
:104358008430C4F85C80A4F86070A4F86270636666
:10436800A4F86830A4F86A3063672367A368B3F5D4
:10437800C02F19D023685968894A0A4017435F60DB
:104388002268136843F0010313606368B3F5800F74
:1043980010D0E3680F2B17D8072B4ED8A7E00023BF
:1043A80084F880300220F8E02268136843F4006340
:1043B8001360DFE72268136843F400731360E8E7CB
:1043C800FDB1B5F1FF3F17D1B4F8622092B2002ACF
:1043D80000F0C48023685A6912F0020FF0D0E26D31
:1043E80012681A62E36D0433E365B4F86230013B86
:1043F8009BB2A4F86230E7E7FDF7CEFA801BA8422B
:10440800E2D32046FFF74EFE002384F88030D4F82C
:10441800843043F48073C4F88430012084F8810028
:10442800BBE0E26D12881A84E36D0233E365B4F8E9
:104438006230013B9BB2A4F86230B4F862309BB2A0
:10444800002B00F08B8023685A6912F0020F14D0F9
:10445800B4F8622092B2012AE3D9E26B002AE0D0D4
:10446800E26D12681A62E36D0433E365B4F86230F2
:10447800023B9BB2A4F86230DFE73DB1B5F1FF3FE4
:10448800DBD0FDF789FA801BA842D6D32046FFF778
:1044980009FE002384F88030D4F8843043F4807314
:1044A800C4F88430012084F8810076E0B4F86220F2
:1044B80092B2012A0ED9E26B62B1E26D12881A84B7
:1044C800E36D0233E365B4F86230023B9BB2A4F8B3
:1044D80062300CE0E26D127883F82020E36D01333E
:1044E800E365B4F86230013B9BB2A4F86230B4F8DB
:1044F80062309BB293B323685A6912F0020F14D04A
:10450800B4F8622092B2032AD0D9E26B402ACDD9FE
:10451800E26D12681A62E36D0433E365B4F8623041
:10452800043B9BB2A4F86230E1E73DB1B5F1FF3F2F
:10453800DDD0FDF731FA801BA842D8D32046FFF71B
:10454800B1FD002384F88030D4F8843043F48073BC
:10455800C4F88430012084F881001EE000953346B9
:10456800002208212046FFF70DFE28B1D4F8843038
:1045780043F02003C4F884302046FFF793FD00235E
:1045880084F88030012384F88130D4F884300BB962
:10459800002002E0012000E0022002B0BDE8F08126
:1045A8000000FFFF2DE9F04387B004460168826AE6
:1045B80083680069034360690343E0690343134365
:1045C8000868874A02401A430A602268536823F43D
:1045D8004053E1680B435360A2692168814B9942BB
:1045E80001D0236A1A43A36AB3F1005F2FD0886809
:1045F8007D4B034013438B602268D36A23F00F037B
:10460800616A0B43D3622368784A934224D0784A7C
:1046180093425ED0774A934275D0774A934200F02E
:104628008C80764A934200F0A280754A934200F04B
:10463800B880744A934200F0F580734A934200F0C0
:104648000881684A934200F01B81802531E1E36AC2
:10465800206B03431A43CAE76C4A526D02F03802D2
:10466800282A2AD8DFE812F0240129002900290085
:1046780029002900290029002B00290029002900E8
:1046880029002900290029002D00290029002900D6
:1046980029002900290029002F00290029002900C4
:1046A80029002900290029003100290029002900B2
:1046B800290029002900290033008025F9E0042574
:1046C800F7E04025F5E00825F3E01025F1E0202586
:1046D800EFE04E4A526D02F00702052A07D8DFE8DC
:1046E80012F0360108000A000C000E0010008025A8
:1046F800DFE00425DDE04025DBE00825D9E01025D2
:10470800D7E02025D5E0414A526D02F00702052A7C
:1047180007D8DFE812F01E0108000A000C000E009E
:1047280010008025C5E00425C3E04025C1E0082528
:10473800BFE01025BDE02025BBE0344A526D02F0F1
:104748000702052A07D8DFE812F0060108000A0068
:104758000C000E0010008025ABE00425A9E04025E0
:10476800A7E00825A5E01025A3E02025A1E0274A19
:10477800526D02F00702052A07D8DFE812F0EE00B2
:1047880008000A000C000E001000802591E00425A6
:104798008FE040258DE008258BE0102589E0202555
:1047A80087E01A4A526D02F03802282A16D8DFE844
:1047B80002F0D6151515151515152F1515151515FE
:1047C8001515311515151515151533151515151557
:1047D800151535151515151515153700802568E0BB
:1047E800F369FFCF000C0058FFF4FF1100100140DF
:1047F8000044004000480040004C00400050004089
:104808000014014000780040007C00400044025839
:1048180004254EE040254CE008254AE0102548E0F4
:10482800202546E09B4A526D02F00702052A04D86B
:10483800DFE802F0970507090B0D802539E004250C
:1048480037E0402535E0082533E0102531E0202504
:104858002FE0904A526D02F00702052A04D8DFE8DB
:1048680002F0820507090B0D802522E0042520E0CF
:1048780040251EE008251CE010251AE0202518E038
:1048880002F50E32926D02F00702052A04D8DFE81D
:1048980002F06C0507090B0D80250AE0042508E0E5
:1048A800402506E0082504E0102502E0202500E068
:1048B8000125794A93425AD0E269B2F5004F00F0D7
:1048C8009181402D00F2FB82DFE815F05A026C025C
:1048D800F902F9027E02F902F902F902A602F902C6
:1048E800F902F902F902F902F902F902D002F90211
:1048F800F902F902F902F902F902F902F902F902D8
:10490800F902F902F902F902F902F902E002F902E0
:10491800F902F902F902F902F902F902F902F902B7
:10492800F902F902F902F902F902F902F902F902A7
:10493800F902F902F902F902F902F902F902F90297
:10494800F902F902F902F902F902F90292020025C4
:10495800AFE70025ADE70025ABE70025A9E701256E
:10496800A7E70025A5E70025A3E70225A1E7082D6D
:1049780036D007D9202D3FD0402D2CD0102D0AD06D
:1049880001206CE1022D08D0042DF9D103A8FFF70E
:10499800A3F9049B04E0414B05E0FFF787F90346C0
:1049A800002B00F08482666806EB46029A4200F209
:1049B8008082B3EB063F00F27E82082D00F09580DE
:1049C8001FD9202D00F0F580402D6FD0102D00F05C
:1049D800D280012054E06846FFF764FA019BDFE7C4
:1049E8002C4B1B6813F0200F09D02A4B1868C0F312
:1049F800C1002B4BC340D3E74FF40043D3E7284B08
:104A0800D1E7022D20D0042DE3D103A8FFF764F9E4
:104A18000025626A234B33F81220002304982946A4
:104A2800FBF756FC0F0247EA106706026268500857
:104A38002B4616EB000847F1000940464946FBF7AC
:104A480047FC034628461BE0FFF730F90025626A59
:104A5800144B33F8122000232946FBF739FC0F02C8
:104A680047EA10670602626850082B4616EB0008F2
:104A780047F1000940464946FBF72AFC0346284609
:104A8800A3F54071084A914200F217822268D36068
:104A9800E5E000BF00440258000C005800093D0042
:104AA8000090D0032C670008FFFC0F006846FFF752
:104AB800F9F90025626AA44B33F812200023019803
:104AC8002946FBF705FC0F0247EA106706026268F1
:104AD80050082B4616EB000847F1000940464946A6
:104AE800FBF7F6FB03462846CAE7984B1B6813F00A
:104AF800200F22D0954B1968C1F3C1010025626AC5
:104B0800914B33F8122000239148C8402946FBF7FF
:104B1800DFFB4FEA012949EA10694FEA00287008CB
:104B280032462B4618EB000649F100073046394655
:104B3800FBF7CEFB03462846A2E7626A824B33F8AE
:104B48001220002382480021FBF7C2FB4FEA01290B
:104B580049EA10694FEA00287008002532462B46BA
:104B680018EB000649F1000730463946FBF7B0FB61
:104B78000346284684E7626A734B33F81220002301
:104B880074480021FBF7A4FB4FEA012949EA1069A0
:104B98004FEA00287008002532462B4618EB00061D
:104BA80049F1000730463946FBF792FB0346284691
:104BB80066E7626A644B33F812204FF40043B3FB94
:104BC800F2F34FF000094FEA032877080025324630
:104BD8002B4618EB070049F10001FBF779FB034668
:104BE80028464DE7402D00F2C880DFE805F0213B5C
:104BF800C6C64CC6C6C672C6C6C6C6C6C6C69CC645
:104C0800C6C6C6C6C6C6C6C6C6C6C6C6C6C6B5C64D
:104C1800C6C6C6C6C6C6C6C6C6C6C6C6C6C6C6C62C
:104C2800C6C6C6C6C6C6C6C6C6C6C6C6C6C65F0049
:104C3800FEF794FA626A444B33F81220B0FBF2F0A4
:104C480063685A0802EB4002B2FBF3F292B200200A
:104C580022F00F03C2F342021A432368DA6007B056
:104C6800BDE8F083FEF790FA626A374B33F81220FA
:104C7800B0FBF2F063685A0802EB4002B2FBF3F2B1
:104C880092B20020E4E703A8FFF726F8626A2E4BE9
:104C980033F81230049AB2FBF3F361684A0802EB66
:104CA8004302B2FBF1F292B20020D1E76846FFF767
:104CB800F9F8626A244B33F81230019AB2FBF3F325
:104CC80061684A0802EB4302B2FBF1F292B200209B
:104CD800BEE71E4B1B6813F0200F14D01B4B1A683D
:104CE800C2F3C1021A4BD340616A174A32F8112045
:104CF800B3FBF2F361684A0802EB4302B2FBF1F23C
:104D080092B20020A4E7626A0F4B33F81220104BCE
:104D1800B3FBF2F361684A0802EB4302B2FBF1F21B
:104D280092B2002094E7626A074B33F81230094ABE
:104D3800B2FBF3F361684A0802EB4302B2FBF1F2FB
:104D480092B2002084E700BF2C6700080044025894
:104D58000090D00300093D00626A5A4B33F81230C4
:104D68004FF40042B2FBF3F361684A0802EB4302D6
:104D7800B2FBF1F292B200206AE70120002267E755
:104D8800FEF7ECF9626A4F4B33F81230B0FBF3F3DD
:104D9800626803EB5203B3FBF2F322689BB2D36061
:104DA80000205CE7FEF7F0F9626A464B33F81230F0
:104DB800B0FBF3F3626803EB5203B3FBF2F3226830
:104DC8009BB2D36000204AE703A8FEF785FF626A1A
:104DD8003C4B33F81220049BB3FBF2F3626803EBFD
:104DE8005203B3FBF2F322689BB2D360002036E78C
:104DF8006846FFF757F8626A324B33F81220019B76
:104E0800B3FBF2F3626803EB5203B3FBF2F32268DD
:104E18009BB2D360002022E72B4A126812F0200FC1
:104E280014D0294A1168C1F3C101284ACA40606AEE
:104E3800244931F81010B2FBF1F2616802EB51021B
:104E4800B2FBF1F292B2DA60002008E7616A1D4A0B
:104E580032F811101D4AB2FBF1F2616802EB5102FF
:104E6800B2FBF1F292B2DA600020F8E6616A154A04
:104E780032F81110164AB2FBF1F2616802EB5102E6
:104E8800B2FBF1F292B2DA600020E8E6616A0D4AFC
:104E980032F811104FF40042B2FBF1F2616802EBF4
:104EA8005102B2FBF1F292B2DA600020D7E600209C
:104EB800D5E60120D3E60120D1E60120CFE6012086
:104EC800CDE600BF2C670008004402580090D003CC
:104ED80000093D00436B13F0010F06D002685368C8
:104EE80023F40033816B0B435360436B13F0020FC1
:104EF80006D00268536823F48033C16B0B435360B8
:104F0800436B13F0040F06D00268536823F4802320
:104F1800016C0B435360436B13F0080F06D0026813
:104F2800536823F40043416C0B435360436B13F005
:104F3800100F06D00268936823F48053816C0B43EA
:104F48009360436B13F0200F06D00268936823F434
:104F58000053C16C0B439360436B13F0400F0AD0AE
:104F68000268536823F48013016D0B435360036D8B
:104F7800B3F5801F0BD0436B13F0800F06D0026887
:104F8800536823F40023816D0B4353607047026814
:104F9800536823F4C003416D0B435360EBE72DE9DD
:104FA800F04105460F4616469846069C2B68DB6975
:104FB80037EA03030CBF01230023B3421DD1B4F128
:104FC800FF3FF3D02CB1FCF7E7FCA0EB0800A042B0
:104FD800ECD92A68136823F4D07313602A6893689D
:104FE80023F001039360202385F8793085F87A301F
:104FF800002385F87830032000E00020BDE8F08128
:1050080030B583B004460023C367FCF7C5FC0546EA
:1050180023681B6813F0080F0ED123681B6813F070
:10502800040F17D1202384F8793084F87A300020CF
:1050380084F8780003B030BD6FF07E4300930346D8
:1050480000224FF400112046FFF7A9FF0028E4D002
:105058000320EFE76FF07E4300932B4600224FF4C6
:1050680080012046FFF79BFF0028DBD00320E1E703
:1050780078B310B5044690F879300BB3242384F83C
:1050880079302268136823F0010313602046FFF784
:1050980089FA012813D0636BBBB92268536823F4DB
:1050A800904353602268936823F02A039360226830
:1050B800136843F0010313602046FFF7A1FF10BDFA
:1050C80080F87830FCF702F9D8E72046FFF702FFAE
:1050D800E3E701207047000084B010B5044603A838
:1050E80080E80E00089B012B1ED1A36B23F48033AC
:1050F800A363E268164B1340E360E36823F44013AC
:10510800E3600F9B012B0AD0204600F0D1FC069BE0
:10511800012B14D00020BDE8104004B07047E368AC
:1051280043F48013E360EFE7E36843F04003E36090
:10513800204600F0BDFC4FF48033A363E7E7A36883
:1051480043F00C03A360A36843F02003A360E1E7E6
:10515800BFFFBDFF836843F00103836000207047F1
:10516800836823F0010383600020704708B5C36893
:1051780023F0C043C360012909D019B9C36843F0BB
:105188008043C3603220FCF70DFC002008BDC368D3
:1051980043F00053C360F5E784B0F8B5044607A8A8
:1051A80080E80E00A36B43F40013A363119F5FB95B
:1051B800A36B23F40013A363236843F04003236025
:1051C800236843F08003236025460023C4F8003E8B
:1051D80004F50066D4F80038C4F800380C9B012B9D
:1051E8000BD1099B23B90021204600F0A9F808E05B
:1051F8000121204600F0A4F803E00321204600F036
:105208009FF81021204600F075F8204600F086F837
:105218000023336173614FF0FF32B261F36108E03C
:105228004FF09040C2F8000900220A61FF228A600C
:105238000133079999420BD905EB431202F5106126
:10524800D2F800090028EBDB0020C2F80009EBE7E0
:10525800002308E04FF0904CC2F800CB0022026116
:10526800FF228260013399420DD905EB431202F502
:105278003060D2F800CBBCF1000FEBDB4FF0000C34
:10528800C2F800CBEAE7336923F4807333610A9BE1
:10529800012B1AD00022A2616FF0804262611BB913
:1052A800A36943F01003A361A2690E4B1343A361E2
:1052B8000D9B1BB1A36943F00803A361012F0CD018
:1052C8000020BDE8F84004B07047074A3263316BEC
:1052D800064A0A433263326BDCE7A269044B134384
:1052E800A361EDE700383C800004000203000108D8
:1052F80004000040890141F02001016100230133CD
:10530800054A934205D8026912F0200FF7D1002010
:1053180070470320704700BF400D0300102303614E
:1053280000230133054A934205D8026912F0100F91
:10533800F7D1002070470320704700BF400D0300DD
:10534800D0F800381943C0F8001800207047D0F88A
:10535800083800F5006013F0060F10D0836803F0DA
:105368000603022B0DD0836803F00603062B0AD030
:10537800836803F00603042B07D000207047002041
:1053880070470320704703207047022070470000D1
:1053980030B44B78012B20D0D0F81C380D7801227E
:1053A800AA4043EA0243C0F81C380B7800EB4310CC
:1053B800D0F8003B13F4004F0CD1D0F8002B8B68C9
:1053C800C3F30A03C97843EA81431343134A1A43D0
:1053D800C0F8002B002030BC7047D0F81C280D788E
:1053E800AB409BB21343C0F81C380A7800EB42105C
:1053F800D0F8003913F4004FECD1D0F800498B688D
:10540800C3F30A03C97843EA814343EA8253234337
:10541800024A1A43C0F80029DCE700BF00800010E8
:1054280030B44B78012B1DD0D0F83C480D780122C0
:1054380002FA05F524EA0544C0F83C48D0F81C48AF
:105448000D78AA4024EA0242C0F81C280B7800EB29
:105458004310D0F8003B23F40043C0F8003B002081
:1054680030BC7047D0F83C580A7803FA02F292B27E
:1054780025EA0202C0F83C28D0F81C280D78AB4079
:105488009BB222EA0303C0F81C380B7800EB4310E8
:10549800D0F8003923F40043C0F80039DFE70000F2
:1054A80070B582B04B78012B3CD00B7800EB4313DE
:1054B800D3F8105B8F4C2C40C3F8104B0B7800EBE3
:1054C8004313D3F8105B8C4C2C40C3F8104B4B693A
:1054D800002B40F0D0800B7800EB4313D3F8104B2F
:1054E8008D68C5F312052C43C3F8104B0B7800EBFD
:1054F8004313D3F8104B44F40024C3F8104B012A8B
:1055080000F0D880CB78012B00F0DB800B7800EB23
:105518004310D0F8003B43F00443C0F8003B0020A0
:1055280002B070BD4B695BBB0B7800EB4313D3F83B
:105538001059714C2C40C3F810490B7800EB4313F9
:10554800D3F8104944F40024C3F810490B7800EB51
:105558004313D3F81059674C2C40C3F81049012A5B
:1055680052D0CB78012B55D04B69002B52D0D0F8B4
:1055780034380E780124B4402343C0F8343849E065
:105588000B7800EB4313D3F810595A4C2C40C3F84E
:1055980010490B7800EB4313D3F81059564C2C40A4
:1055A800C3F810490C7800EB4414D4F810594B692F
:1055B8008E683344013BB3FBF6F3504E06EAC3430F
:1055C8002B43C4F810390B7800EB4313D3F8104978
:1055D8004D69C5F312052C43C3F81049CB78012B4C
:1055E800BDD10B7800EB4313D3F8104924F0C04425
:1055F800C3F810490B7800EB4313D3F8104944F073
:105608000054C3F81049AAE70B7800EB43130C6960
:10561800C3F81449CB78012B14D00B7800EB431353
:10562800D3F8004944F00444C3F80049CB78012B6F
:105638007FF475AF14468B8A0A78C968009400F025
:105648000DF96CE7D0F8083813F4807F09D10B788E
:1056580000EB4313D3F8004944F00054C3F8004961
:10566800DBE70B7800EB4313D3F8004944F0805490
:10567800C3F80049D1E78C682344013BB3FBF4F33A
:105688000C7800EB4414D4F8105B1C4E06EAC346B1
:105698003543C4F8105B0C7800EB4414D4F8106B55
:1056A8008D689BB205FB03F5C5F312053543C4F8B5
:1056B800105B24E7CA680B7800EB4313C3F8142B7C
:1056C80020E7D0F8083813F4807F09D10B7800EB75
:1056D8004313D3F8002B42F00052C3F8002B15E710
:1056E8000B7800EB4313D3F8002B42F08052C3F839
:1056F800002B0BE70000F8FFFFFF07E00000F81F92
:1057080030B44B78012B37D00B7800EB4313D3F828
:10571800105B504C2C40C3F8104B0B7800EB431334
:10572800D3F8105B4C4C2C40C3F8104B4B690BB1B1
:105738008B684B610B7800EB4313D3F8104B44F4A0
:105748000024C3F8104B0B7800EB4313D3F8104B2D
:105758008D68C5F312052C43C3F8104B012A71D08C
:105768000B7800EB4310D0F8003B43F00443C0F83B
:10577800003B002030BC70474B6983BB0B7800EBC3
:105788004313D3F81059344C2C40C3F810490B7804
:1057980000EB4313D3F8104944F40024C3F810492C
:1057A8000B7800EB4313D3F810592A4C2C40C3F85C
:1057B8001049012A3FD04B693BB1D0F834380D78F5
:1057C8000122AA401343C0F834380B7800EB431089
:1057D800D0F8003943F00443C0F80039C9E70B7822
:1057E80000EB4313D3F810591A4C2C40C3F8104956
:1057F8000B7800EB4313D3F81059174C2C40C3F81F
:1058080010494C698B689C4200D94B610B7800EBBE
:105818004313D3F8104944F40024C3F810490B7813
:1058280000EB4313D3F810494D69C5F312052C4317
:10583800C3F81049BDE70B7800EB43130A69C3F8B6
:105848001429C2E7CA680B7800EB4313C3F8142B7A
:1058580086E700BF0000F8FFFFFF07E070B49DF87F
:105868000C4064B903339D1007E000EB023303F5E5
:10587800805351F8046B1E600134AC42F5D300200C
:1058880070BC704703329210002393420CD210B4BC
:1058980000F58054246841F8044B01339342F7D350
:1058A80008465DF8044B7047084670474B78012B53
:1058B80017D00B7800EB4313D3F8002B002A05DB35
:1058C800D3F8002B22F08042C3F8002B0B7800EBB2
:1058D8004310D0F8003B43F40013C0F8003B00200D
:1058E80070470B7800EB4313D3F80029002A05DB37
:1058F800D3F8002922F08042C3F800290B7800EB86
:105908004310D0F8003943F40013C0F80039E6E733
:105918004B78012B0FD00B7800EB4313D3F8002BF7
:1059280022F40012C3F8002BCB78023BDBB2012B28
:1059380019D9002070470B7800EB4313D3F80029DE
:1059480022F40012C3F80029CB78023BDBB2012B0A
:10595800EFD80B7800EB4310D0F8003943F08053B0
:10596800C0F80039E5E70B7800EB4310D0F8003BAE
:1059780043F08053C0F8003BDBE7D0F8003823F44D
:10598800FE63C0F80038D0F80038090101F4FE6160
:105998000B43C0F800380020704708B5D0F8043829
:1059A80023F00203C0F804380320FBF7FBFF0020B4
:1059B80008BD08B5D0F8043843F00203C0F804382D
:1059C8000320FBF7EFFF002008BD42698069104003
:1059D8007047D0F8183800F50060C0691840000C0E
:1059E8007047D0F8183800F50060C069184080B2D8
:1059F800704700EB4111D1F8082B00F500604069B1
:105A08001040704710B4D0F81048D0F83438CB4064
:105A1800DB01DBB2234300EB411000F51060806826
:105A280018405DF8044B7047406900F0010070476A
:105A3800D0F800290B4B1340C0F8003900F500637B
:105A48009A6802F00602042A05D05A6842F4807265
:105A58005A6000207047D0F8002942F00302C0F8CD
:105A68000029F2E700F8FFFF10B40024C0F8104B3B
:105A7800D0F8104B44F40024C0F8104BD0F8104B69
:105A880044F01804C0F8104BD0F8104B44F0C04450
:105A9800C0F8104B012903D000205DF8044B704773
:105AA800C0F8142B4FF08023C0F8003BF4E7000047
:105AB800002301330C4A934211D80269002AF8DA0C
:105AC800036943F00103036100230133064A93424B
